{"contracts/VantageRegistry.sol":{"VantageRegistry":{"abi":[{"inputs":[{"internalType":"address","name":"_vantageProtocolWallet","type":"address"}],"stateMutability":"nonpayable","type":"constructor"},{"inputs":[],"name":"CorpusInactive","type":"error"},{"inputs":[],"name":"CorpusNotFound","type":"error"},{"inputs":[],"name":"EmptyName","type":"error"},{"inputs":[],"name":"EmptyTokenName","type":"error"},{"inputs":[],"name":"InvalidAddress","type":"error"},{"inputs":[],"name":"InvalidShares","type":"error"},{"inputs":[],"name":"NotCreator","type":"error"},{"anonymous":false,"inputs":[{"indexed":true,"internalType":"uint256","name":"corpusId","type":"uint256"},{"indexed":true,"internalType":"address","name":"creator","type":"address"},{"indexed":false,"internalType":"string","name":"name","type":"string"}],"name":"CorpusCreated","type":"event"},{"anonymous":false,"inputs":[{"indexed":true,"internalType":"uint256","name":"corpusId","type":"uint256"}],"name":"CorpusDeactivated","type":"event"},{"anonymous":false,"inputs":[{"indexed":true,"internalType":"uint256","name":"corpusId","type":"uint256"}],"name":"KernelUpdated","type":"event"},{"anonymous":false,"inputs":[{"indexed":true,"internalType":"uint256","name":"corpusId","type":"uint256"}],"name":"PatronUpdated","type":"event"},{"anonymous":false,"inputs":[{"indexed":true,"internalType":"uint256","name":"corpusId","type":"uint256"},{"indexed":false,"internalType":"address","name":"tokenAddress","type":"address"},{"indexed":false,"internalType":"uint256","name":"totalSupply","type":"uint256"},{"indexed":false,"internalType":"uint256","name":"protocolFee","type":"uint256"}],"name":"PulseTokenCreated","type":"event"},{"anonymous":false,"inputs":[{"indexed":true,"internalType":"uint256","name":"corpusId","type":"uint256"}],"name":"PulseUpdated","type":"event"},{"inputs":[],"name":"LAUNCHPAD_FEE_BPS","outputs":[{"internalType":"uint16","name":"","type":"uint16"}],"stateMutability":"view","type":"function"},{"inputs":[{"internalType":"string","name":"name","type":"string"},{"internalType":"string","name":"category","type":"string"},{"components":[{"internalType":"uint16","name":"creatorShare","type":"uint16"},{"internalType":"uint16","name":"investorShare","type":"uint16"},{"internalType":"uint16","name":"treasuryShare","type":"uint16"},{"internalType":"address","name":"creatorAddr","type":"address"},{"internalType":"address","name":"investorAddr","type":"address"},{"internalType":"address","name":"treasuryAddr","type":"address"}],"internalType":"struct VantageRegistry.PatronConfig","name":"patron","type":"tuple"},{"components":[{"internalType":"uint256","name":"approvalThreshold","type":"uint256"},{"internalType":"uint256","name":"gtmBudget","type":"uint256"},{"internalType":"uint256","name":"minPatronPulse","type":"uint256"}],"internalType":"struct VantageRegistry.KernelConfig","name":"kernel","type":"tuple"},{"components":[{"internalType":"address","name":"tokenAddr","type":"address"},{"internalType":"uint256","name":"totalSupply","type":"uint256"},{"internalType":"uint256","name":"priceUsdCents","type":"uint256"}],"internalType":"struct VantageRegistry.PulseConfig","name":"pulse","type":"tuple"},{"internalType":"string","name":"tokenName","type":"string"},{"internalType":"string","name":"tokenSymbol","type":"string"}],"name":"createCorpus","outputs":[{"internalType":"uint256","name":"corpusId","type":"uint256"}],"stateMutability":"nonpayable","type":"function"},{"inputs":[{"internalType":"uint256","name":"corpusId","type":"uint256"}],"name":"creatorOf","outputs":[{"internalType":"address","name":"","type":"address"}],"stateMutability":"view","type":"function"},{"inputs":[{"internalType":"uint256","name":"corpusId","type":"uint256"}],"name":"deactivateCorpus","outputs":[],"stateMutability":"nonpayable","type":"function"},{"inputs":[{"internalType":"uint256","name":"corpusId","type":"uint256"}],"name":"getCorpus","outputs":[{"components":[{"internalType":"uint256","name":"id","type":"uint256"},{"internalType":"string","name":"name","type":"string"},{"internalType":"string","name":"category","type":"string"},{"internalType":"address","name":"creator","type":"address"},{"components":[{"internalType":"uint16","name":"creatorShare","type":"uint16"},{"internalType":"uint16","name":"investorShare","type":"uint16"},{"internalType":"uint16","name":"treasuryShare","type":"uint16"},{"internalType":"address","name":"creatorAddr","type":"address"},{"internalType":"address","name":"investorAddr","type":"address"},{"internalType":"address","name":"treasuryAddr","type":"address"}],"internalType":"struct VantageRegistry.PatronConfig","name":"patron","type":"tuple"},{"components":[{"internalType":"uint256","name":"approvalThreshold","type":"uint256"},{"internalType":"uint256","name":"gtmBudget","type":"uint256"},{"internalType":"uint256","name":"minPatronPulse","type":"uint256"}],"internalType":"struct VantageRegistry.KernelConfig","name":"kernel","type":"tuple"},{"components":[{"internalType":"address","name":"tokenAddr","type":"address"},{"internalType":"uint256","name":"totalSupply","type":"uint256"},{"internalType":"uint256","name":"priceUsdCents","type":"uint256"}],"internalType":"struct VantageRegistry.PulseConfig","name":"pulse","type":"tuple"},{"internalType":"uint256","name":"createdAt","type":"uint256"},{"internalType":"bool","name":"active","type":"bool"}],"internalType":"struct VantageRegistry.Corpus","name":"","type":"tuple"}],"stateMutability":"view","type":"function"},{"inputs":[{"internalType":"uint256","name":"corpusId","type":"uint256"}],"name":"isActive","outputs":[{"internalType":"bool","name":"","type":"bool"}],"stateMutability":"view","type":"function"},{"inputs":[],"name":"nextCorpusId","outputs":[{"internalType":"uint256","name":"","type":"uint256"}],"stateMutability":"view","type":"function"},{"inputs":[{"internalType":"uint256","name":"corpusId","type":"uint256"},{"components":[{"internalType":"uint256","name":"approvalThreshold","type":"uint256"},{"internalType":"uint256","name":"gtmBudget","type":"uint256"},{"internalType":"uint256","name":"minPatronPulse","type":"uint256"}],"internalType":"struct VantageRegistry.KernelConfig","name":"kernel","type":"tuple"}],"name":"updateKernel","outputs":[],"stateMutability":"nonpayable","type":"function"},{"inputs":[{"internalType":"uint256","name":"corpusId","type":"uint256"},{"components":[{"internalType":"uint16","name":"creatorShare","type":"uint16"},{"internalType":"uint16","name":"investorShare","type":"uint16"},{"internalType":"uint16","name":"treasuryShare","type":"uint16"},{"internalType":"address","name":"creatorAddr","type":"address"},{"internalType":"address","name":"investorAddr","type":"address"},{"internalType":"address","name":"treasuryAddr","type":"address"}],"internalType":"struct VantageRegistry.PatronConfig","name":"patron","type":"tuple"}],"name":"updatePatron","outputs":[],"stateMutability":"nonpayable","type":"function"},{"inputs":[{"internalType":"uint256","name":"corpusId","type":"uint256"},{"components":[{"internalType":"address","name":"tokenAddr","type":"address"},{"internalType":"uint256","name":"totalSupply","type":"uint256"},{"internalType":"uint256","name":"priceUsdCents","type":"uint256"}],"internalType":"struct VantageRegistry.PulseConfig","name":"pulse","type":"tuple"}],"name":"updatePulse","outputs":[],"stateMutability":"nonpayable","type":"function"},{"inputs":[],"name":"vantageProtocolWallet","outputs":[{"internalType":"address","name":"","type":"address"}],"stateMutability":"view","type":"function"}],"evm":{"bytecode":{"linkReferences":{},"object":"60a03461007557601f6120a638819003918201601f19168301916001600160401b038311848410176100795780849260209460405283398101031261007557516001600160a01b03811681036100755760018055608052604051612018908161008e82396080518181816104f401526111d20152f35b5f80fd5b634e487b7160e01b5f52604160045260245ffdfe608080604052600436101562000013575f80fd5b5f3560e01c9081630c8f531414620011be57508063116420201462000f775780634362e30c1462000ed4578063589a17431462000e9e5780636b6e24111462000b7c57806382afd23b1462000b49578063b65b65761462000b2a578063c8993e8c1462000b0c578063dee4e43b146200025b578063e556887a14620001ae5763f830db0614620000a1575f80fd5b346200017457620000b23662001272565b5f828152602081905260409020600301546001600160a01b0391908216156200019c57825f525f60205281600360405f2001541633036200018a57825f525f60205260ff600e60405f20015416156200017857825f525f60205260405f2091600a83019180359182168092036200017457600c926040926bffffffffffffffffffffffff60a01b8254161790556020810135600b85015501359101557f39cb946c4aba4a9442a0e861abdad3b6a4eeba112d6a0299411d7d0b83e445cc5f80a2005b5f80fd5b6040516305e58dbb60e11b8152600490fd5b6040516393687c0b60e01b8152600490fd5b604051636f2875cd60e01b8152600490fd5b346200017457620001bf3662001272565b5f828152602081905260409020600301546001600160a01b03908116156200019c57825f525f602052600360405f2001541633036200018a57815f525f60205260ff600e60405f20015416156200017857815f525f60205260096040805f2092803560078501556020810135600885015501359101557f942cf7abe001c0241e54cb1ca85f0b7deb7a7c9531ad59f48b29b125c5cfe5415f80a2005b346200017457610200366003190112620001745760043567ffffffffffffffff811162000174576200029290369060040162001241565b9060243567ffffffffffffffff81116200017457620002b690369060040162001241565b919060c03660431901126200017457606036610103190112620001745760603661016319011262000174576101c43567ffffffffffffffff811162000174576200030590369060040162001241565b6101e49491943567ffffffffffffffff811162000174576200032c90369060040162001241565b919095871562000afa57811562000ae85760443561ffff8116809103620001745760643561ffff811680910362000174576200036891620014a5565b61ffff608435169081608435036200017457612710916200038991620014a5565b0362000ad65760a4356001600160a01b0381169081900362000174578015801562000ab8575b801562000a9a575b62000a465760c4356001600160a01b03811690819003620001745780821491821562000a77575b50811562000a58575b5062000a4657600154965f19881462000a3257600188016001556040519384610b2f81011067ffffffffffffffff610b2f87011117620008f757620004476200045e938695610b2f620014b4883960a0610b2f880181815201916200146b565b91610b2f850183036020610b2f870101526200146b565b610184356040610b2f84010152306060610b2f8401015260126080610b2f8401015203905ff0801562000a0557670de0b6b3a76400009182610184350292610184358404146101843515171562000a3257681043561a882930000061018435029280840461012c148115171562000a325780612710850481031162000a325760405163a9059cbb60e01b81526001600160a01b037f00000000000000000000000000000000000000000000000000000000000000001660048201526127108504602482015290602082806044810103815f6001600160a01b0389165af190811562000a0557620005929260209262000a10575b506200055c620012b9565b60405163a9059cbb60e01b81526001600160a01b0390911660048201526127108704909103602482015291829081906044820190565b03815f6001600160a01b0388165af1801562000a0557620009cf575b50855f525f60205260405f209386855567ffffffffffffffff8811620008f757620005dd600186015462001382565b601f811162000986575b50875f601f821160011462000917575f916200090b575b508860011b905f198a60031b1c19161760018601555b67ffffffffffffffff8211620008f757819062000635600287015462001382565b601f8111620008a2575b505f90601f831160011462000830575f9262000824575b50508160011b915f199060031b1c19161760028401555b6003830180546001600160a01b03199081163317909155936004840161ffff6200069662001295565b1681549063ffff0000620006a9620012a7565b60101b16906601000000000000600160d01b03620006c6620012b9565b60301b169265ffffffffffff60d01b16171765ffff0000000060843560201b16171790556005840160018060a01b03620006ff620012d0565b825488169116179055600684016001600160a01b0360e43590811690819003620001745781548716179055610104356007850155610124356008850155610144356009850155600a840192610164356001600160a01b038116036200017457602097877f2963748485bfa9355f742a7df0403d3195c000cbd62a9973895a16f703ba382e620007fc61271095600e7fdc00c66624b323ab9355e9f43641a4356213d3b7ff59604457e114ddbdc526ed9a8a869d60609c541661018435600b8401556101a435600c84015560018060a01b038c1617905542600d82015501600160ff198254161790556040519182918e835233968f8401916200146b565b0390a36040519260018060a01b031683526101843588840152046040820152a2604051908152f35b01359050888062000656565b909250600286015f5260205f20905f935b601f198416851062000889576001945083601f198116106200086f575b505050811b0160028401556200066d565b01355f19600384901b60f8161c191690558880806200085e565b8181013583556020948501946001909301920162000841565b909150600286015f5260205f20601f840160051c810160208510620008ef575b90849392915b601f830160051c82018110620008e05750506200063f565b5f8155859450600101620008c8565b5080620008c2565b634e487b7160e01b5f52604160045260245ffd5b905086013589620005fe565b9050600186015f5260205f20905f5b601f198b1681106200096d575089601f1981161062000953575b5050600188811b01600186015562000614565b8701355f1960038b901b60f8161c19169055888062000940565b9091602060018192858c01358155019301910162000926565b600186015f5260205f20601f8a0160051c810160208b10620009c7575b601f830160051c82018110620009bb575050620005e7565b5f8155600101620009a3565b5080620009a3565b620009f59060203d602011620009fd575b620009ec81836200133f565b8101906200148b565b5087620005ae565b503d620009e0565b6040513d5f823e3d90fd5b62000a2a90833d8511620009fd57620009ec81836200133f565b508a62000551565b634e487b7160e01b5f52601160045260245ffd5b60405163e6c4247b60e01b8152600490fd5b60e4356001600160a01b038116925082900362000174571489620003e7565b90915060e4356001600160a01b0381169190829003620001745714908a620003de565b5060e4356001600160a01b03811690819003620001745715620003b7565b5060c4356001600160a01b03811690819003620001745715620003af565b604051636edcc52360e01b8152600490fd5b60405163e2592aed60e01b8152600490fd5b604051632ef1310560e01b8152600490fd5b3462000174575f3660031901126200017457602060405161012c8152f35b3462000174575f36600319011262000174576020600154604051908152f35b346200017457602036600319011262000174576004355f525f602052602060ff600e60405f200154166040519015158152f35b346200017457602036600319011262000174576004355f61010060405162000ba481620012e7565b828152606060208201526060604082015282606082015260405162000bc98162001305565b8381528360208201528360408201528360608201528360808201528360a0820152608082015262000bf962001362565b60a082015262000c0862001362565b60c082015260e0810183905201525f818152602081905260409020600301546001600160a01b0316156200019c575f525f60205260405f2060ff600e6040519262000c5384620012e7565b8054845262000c6560018201620013bd565b602085015262000c7860028201620013bd565b60408581019190915260038201546001600160a01b031660608601525162000ca08162001305565b600482015461ffff8116825261ffff8160101c16602083015261ffff8160201c16604083015260018060a01b039060301c16606082015260018060a01b03600583015416608082015260018060a01b0360068301541660a0820152608085015260405162000d0e8162001322565b60078201548152600882015460208201526009820154604082015260a085015260405162000d3c8162001322565b60018060a01b03600a830154168152600b8201546020820152600c820154604082015260c0850152600d81015460e085015201541615156101008201526040518091602082528051602083015261010062000dc462000dad6020840151610240604087015261026086019062001201565b6040840151858203601f1901606087015262001201565b9160018060a01b036060820151166080850152608081015161ffff81511660a086015261ffff60208201511660c086015261ffff60408201511660e086015260018060a01b036060820151168386015260018060a01b0360808201511661012086015260a0600180821b0391015116610140850152604060a08201518051610160870152602081015161018087015201516101a0850152604060c082015160018060a01b038151166101c087015260208101516101e0870152015161020085015260e0810151610220850152015115156102408301520390f35b346200017457602036600319011262000174576004355f525f602052602060018060a01b03600360405f20015416604051908152f35b346200017457602036600319011262000174576004355f818152602081905260409020600301546001600160a01b03908116156200019c57815f525f602052600360405f2001541633036200018a57805f525f60205260ff600e60405f20015416156200017857805f525f602052600e60405f200160ff1981541690557fed42fe78cc53602227647438e2d3ae5f8941ecfea7326d0172a68ad350bc7b445f80a2005b34620001745760e0366003190112620001745760043560c036602319011262000174575f818152602081905260409020600301546001600160a01b03908116156200019c57815f525f60205280600360405f2001541633036200018a57815f525f60205260ff600e60405f2001541615620001785760243561ffff80821680920362000174576044358181168091036200017457620010179083620014a5565b6064359182168092036200017457612710916200103491620014a5565b0362000ad65760843582811691828203620001745782158015620011a8575b801562001192575b62000a46575f9260a435858116809103620001745780821491821562001174575b5081156200115c575b5062000a4657845f525f60205260405f2092600484019283549263ffff0000620010ae62001295565b60101b169165ffff00000000620010c4620012a7565b60201b169362000174576001600160d01b031990941617171760309190911b6601000000000000600160d01b031617905560058101906006908362001108620012b9565b16926bffffffffffffffffffffffff60a01b938482541617905501916200112e620012d0565b16908254161790557f6a6832e461d555d62a4e056912db929bad6f97a0c9ddb75f6238e76d3bd42ff45f80a2005b60c43586811692508290036200017457148662001085565b945090505f9360c4359086821680920362000174571490876200107c565b5060c4358481168091036200017457156200105b565b5060a43584811680910362000174571562001053565b3462000174575f36600319011262000174577f00000000000000000000000000000000000000000000000000000000000000006001600160a01b03168152602090f35b91908251928382525f5b8481106200122c575050825f602080949584010152601f8019910116010190565b6020818301810151848301820152016200120b565b9181601f84011215620001745782359167ffffffffffffffff83116200017457602083818601950101116200017457565b906080600319830112620001745760606004359260231901126200017457602490565b60443561ffff81168103620001745790565b60643561ffff81168103620001745790565b60a4356001600160a01b0381168103620001745790565b60c4356001600160a01b0381168103620001745790565b610120810190811067ffffffffffffffff821117620008f757604052565b60c0810190811067ffffffffffffffff821117620008f757604052565b6060810190811067ffffffffffffffff821117620008f757604052565b90601f8019910116810190811067ffffffffffffffff821117620008f757604052565b60405190620013718262001322565b5f6040838281528260208201520152565b90600182811c92168015620013b2575b60208310146200139e57565b634e487b7160e01b5f52602260045260245ffd5b91607f169162001392565b9060405191825f8254620013d18162001382565b908184526020946001916001811690815f1462001447575060011462001405575b50505062001403925003836200133f565b565b5f90815285812095935091905b8183106200142e5750506200140393508201015f8080620013f2565b8554888401850152948501948794509183019162001412565b925050506200140394925060ff191682840152151560051b8201015f8080620013f2565b908060209392818452848401375f828201840152601f01601f1916010190565b908160209103126200017457518015158103620001745790565b9190820180921162000a325756fe604060a0815234620003f05762000b2f803803806200001e81620003f4565b928339810160a082820312620003f05781516001600160401b0390818111620003f057826200004f9185016200041a565b906020928385015190828211620003f0576200006d9186016200041a565b90858501519260608601519560018060a01b038716809703620003f057608001519060ff821692838303620003f0578151818111620002f6576003908154906001948583811c93168015620003e5575b8b841014620003d15781908b601f948581116200037b575b50508b9084831160011462000316575f926200030a575b50505f1982851b1c191690851b1782555b8651928311620002f65760049687548581811c91168015620002eb575b8b821014620002d85782811162000290575b508991841160011462000229579383949184925f956200021d575b50501b925f19911b1c19161783555b608052604d81116200020a57600a0a91828102928184041490151715620001e1578315620001f45760025490828201809211620001e157506002555f8381528083528481208054830190558451918252917fddf252ad1be2c89b69c2b068fc378daa952ba7f163c4a11628f55a4df523b3ef91a3516106a490816200048b82396080518161026d0152f35b601190634e487b7160e01b5f525260245ffd5b6024905f86519163ec442f0560e01b8352820152fd5b601182634e487b7160e01b5f525260245ffd5b015193505f8062000147565b9190601f19841692885f52848b5f20945f5b8d898383106200027857505050106200025e575b50505050811b01835562000156565b01519060f8845f19921b161c191690555f8080806200024f565b8686015189559097019694850194889350016200023b565b885f528a5f208380870160051c8201928d8810620002ce575b0160051c019086905b828110620002c25750506200012c565b5f8155018690620002b2565b92508192620002a9565b602289634e487b7160e01b5f525260245ffd5b90607f16906200011a565b634e487b7160e01b5f52604160045260245ffd5b015190505f80620000ec565b5f8681528d8120899550929190601f198516908f5b8282106200036357505084116200034b575b505050811b018255620000fd565b01515f1983871b60f8161c191690555f80806200033d565b8385015186558b979095019493840193018f6200032b565b90919250855f5284825f209181860160051c8301938610620003c7575b918991869594930160051c01915b828110620003b857508d9150620000d5565b5f8155859450899101620003a6565b9250819262000398565b634e487b7160e01b5f52602260045260245ffd5b92607f1692620000bd565b5f80fd5b6040519190601f01601f191682016001600160401b03811183821017620002f657604052565b919080601f84011215620003f05782516001600160401b038111620002f65760209062000450601f8201601f19168301620003f4565b92818452828287010111620003f0575f5b818110620004765750825f9394955001015290565b85810183015184820184015282016200046156fe6080604090808252600480361015610015575f80fd5b5f3560e01c91826306fdde031461044957508163095ea7b3146103a157816318160ddd1461038357816323b872dd14610291578163313ce5671461025457816370a082311461021e57816395d89b41146100ff57508063a9059cbb146100cf5763dd62ed3e14610083575f80fd5b346100cb57806003193601126100cb5760209061009e610568565b6100a661057e565b9060018060a01b038091165f5260018452825f2091165f528252805f20549051908152f35b5f80fd5b50346100cb57806003193601126100cb576020906100f86100ee610568565b6024359033610594565b5160018152f35b82346100cb575f3660031901126100cb578051905f835460018160011c9060018316928315610214575b6020938484108114610201578388529081156101e55750600114610191575b505050829003601f01601f191682019267ffffffffffffffff84118385101761017e575082918261017a925282610521565b0390f35b604190634e487b7160e01b5f525260245ffd5b5f878152929350837f8a35acfbc15ff81a39ae7d344fd709f28e8600b4aa8c65c6b64bfe7fe36bd19b5b8385106101d15750505050830101848080610148565b8054888601830152930192849082016101bb565b60ff1916878501525050151560051b8401019050848080610148565b602289634e487b7160e01b5f525260245ffd5b91607f1691610129565b82346100cb5760203660031901126100cb576020906001600160a01b03610243610568565b165f525f8252805f20549051908152f35b82346100cb575f3660031901126100cb576020905160ff7f0000000000000000000000000000000000000000000000000000000000000000168152f35b9050346100cb5760603660031901126100cb576102ac610568565b6102b461057e565b906044359260018060a01b038216805f526001602052855f20335f52602052855f2054915f1983106102ef575b6020876100f8888888610594565b85831061035757811561034157331561032b57505f908152600160209081528682203383528152908690209185900390915582906100f86102e1565b6024905f885191634a1406b160e11b8352820152fd5b6024905f88519163e602df0560e01b8352820152fd5b8651637dc7a0d960e11b8152339181019182526020820193909352604081018690528291506060010390fd5b82346100cb575f3660031901126100cb576020906002549051908152f35b82346100cb57806003193601126100cb576103ba610568565b602435903315610433576001600160a01b031690811561041d5760209350335f5260018452825f20825f52845280835f205582519081527f8c5be1e5ebec7d5bd14f71427d1e84f3dd0314c0f7b2291e5b200ac8c7c3b925843392a35160018152f35b8251634a1406b160e11b81525f81860152602490fd5b825163e602df0560e01b81525f81860152602490fd5b83346100cb575f3660031901126100cb575f60035460018160011c9060018316928315610517575b6020938484108114610201578388529081156101e557506001146104c157505050829003601f01601f191682019267ffffffffffffffff84118385101761017e575082918261017a925282610521565b60035f908152929350837fc2575a0e9e593c00f959f8c92f12db2869c3395a3b0502d05e2516446f71f85b5b8385106105035750505050830101848080610148565b8054888601830152930192849082016104ed565b91607f1691610471565b602080825282518183018190529093925f5b82811061055457505060409293505f838284010152601f8019910116010190565b818101860151848201604001528501610533565b600435906001600160a01b03821682036100cb57565b602435906001600160a01b03821682036100cb57565b916001600160a01b03808416928315610656571692831561063e57825f525f60205260405f20549082821061060c5750817fddf252ad1be2c89b69c2b068fc378daa952ba7f163c4a11628f55a4df523b3ef92602092855f525f84520360405f2055845f5260405f20818154019055604051908152a3565b60405163391434e360e21b81526001600160a01b03919091166004820152602481019190915260448101829052606490fd5b60405163ec442f0560e01b81525f6004820152602490fd5b604051634b637e8f60e11b81525f6004820152602490fdfea26469706673582212209e8b267f3cb7f145e9299e7ae653f8f413a40c593fd3a4ca96970c4fbb1935b364736f6c63430008180033a26469706673582212205ce333fcd63acf670f559b61e16bfb536ca95145e7d10e3ef77d320731a1dae464736f6c63430008180033","opcodes":"PUSH1 0xA0 CALLVALUE PUSH2 0x75 JUMPI PUSH1 0x1F PUSH2 0x20A6 CODESIZE DUP2 SWAP1 SUB SWAP2 DUP3 ADD PUSH1 0x1F NOT AND DUP4 ADD SWAP2 PUSH1 0x1 PUSH1 0x1 PUSH1 0x40 SHL SUB DUP4 GT DUP5 DUP5 LT OR PUSH2 0x79 JUMPI DUP1 DUP5 SWAP3 PUSH1 0x20 SWAP5 PUSH1 0x40 MSTORE DUP4 CODECOPY DUP2 ADD SUB SLT PUSH2 0x75 JUMPI MLOAD PUSH1 0x1 PUSH1 0x1 PUSH1 0xA0 SHL SUB DUP2 AND DUP2 SUB PUSH2 0x75 JUMPI PUSH1 0x1 DUP1 SSTORE PUSH1 0x80 MSTORE PUSH1 0x40 MLOAD PUSH2 0x2018 SWAP1 DUP2 PUSH2 0x8E DUP3 CODECOPY PUSH1 0x80 MLOAD DUP2 DUP2 DUP2 PUSH2 0x4F4 ADD MSTORE PUSH2 0x11D2 ADD MSTORE RETURN JUMPDEST PUSH0 DUP1 REVERT JUMPDEST PUSH4 0x4E487B71 PUSH1 0xE0 SHL PUSH0 MSTORE PUSH1 0x41 PUSH1 0x4 MSTORE PUSH1 0x24 PUSH0 REVERT INVALID PUSH1 0x80 DUP1 PUSH1 0x40 MSTORE PUSH1 0x4 CALLDATASIZE LT ISZERO PUSH3 0x13 JUMPI PUSH0 DUP1 REVERT JUMPDEST PUSH0 CALLDATALOAD PUSH1 0xE0 SHR SWAP1 DUP2 PUSH4 0xC8F5314 EQ PUSH3 0x11BE JUMPI POP DUP1 PUSH4 0x11642020 EQ PUSH3 0xF77 JUMPI DUP1 PUSH4 0x4362E30C EQ PUSH3 0xED4 JUMPI DUP1 PUSH4 0x589A1743 EQ PUSH3 0xE9E JUMPI DUP1 PUSH4 0x6B6E2411 EQ PUSH3 0xB7C JUMPI DUP1 PUSH4 0x82AFD23B EQ PUSH3 0xB49 JUMPI DUP1 PUSH4 0xB65B6576 EQ PUSH3 0xB2A JUMPI DUP1 PUSH4 0xC8993E8C EQ PUSH3 0xB0C JUMPI DUP1 PUSH4 0xDEE4E43B EQ PUSH3 0x25B JUMPI DUP1 PUSH4 0xE556887A EQ PUSH3 0x1AE JUMPI PUSH4 0xF830DB06 EQ PUSH3 0xA1 JUMPI PUSH0 DUP1 REVERT JUMPDEST CALLVALUE PUSH3 0x174 JUMPI PUSH3 0xB2 CALLDATASIZE PUSH3 0x1272 JUMP JUMPDEST PUSH0 DUP3 DUP2 MSTORE PUSH1 0x20 DUP2 SWAP1 MSTORE PUSH1 0x40 SWAP1 KECCAK256 PUSH1 0x3 ADD SLOAD PUSH1 0x1 PUSH1 0x1 PUSH1 0xA0 SHL SUB SWAP2 SWAP1 DUP3 AND ISZERO PUSH3 0x19C JUMPI DUP3 PUSH0 MSTORE PUSH0 PUSH1 0x20 MSTORE DUP2 PUSH1 0x3 PUSH1 0x40 PUSH0 KECCAK256 ADD SLOAD AND CALLER SUB PUSH3 0x18A JUMPI DUP3 PUSH0 MSTORE PUSH0 PUSH1 0x20 MSTORE PUSH1 0xFF PUSH1 0xE PUSH1 0x40 PUSH0 KECCAK256 ADD SLOAD AND ISZERO PUSH3 0x178 JUMPI DUP3 PUSH0 MSTORE PUSH0 PUSH1 0x20 MSTORE PUSH1 0x40 PUSH0 KECCAK256 SWAP2 PUSH1 0xA DUP4 ADD SWAP2 DUP1 CALLDATALOAD SWAP2 DUP3 AND DUP1 SWAP3 SUB PUSH3 0x174 JUMPI PUSH1 0xC SWAP3 PUSH1 0x40 SWAP3 PUSH12 0xFFFFFFFFFFFFFFFFFFFFFFFF PUSH1 0xA0 SHL DUP3 SLOAD AND OR SWAP1 SSTORE PUSH1 0x20 DUP2 ADD CALLDATALOAD PUSH1 0xB DUP6 ADD SSTORE ADD CALLDATALOAD SWAP2 ADD SSTORE PUSH32 0x39CB946C4ABA4A9442A0E861ABDAD3B6A4EEBA112D6A0299411D7D0B83E445CC PUSH0 DUP1 LOG2 STOP JUMPDEST PUSH0 DUP1 REVERT JUMPDEST PUSH1 0x40 MLOAD PUSH4 0x5E58DBB PUSH1 0xE1 SHL DUP2 MSTORE PUSH1 0x4 SWAP1 REVERT JUMPDEST PUSH1 0x40 MLOAD PUSH4 0x93687C0B PUSH1 0xE0 SHL DUP2 MSTORE PUSH1 0x4 SWAP1 REVERT JUMPDEST PUSH1 0x40 MLOAD PUSH4 0x6F2875CD PUSH1 0xE0 SHL DUP2 MSTORE PUSH1 0x4 SWAP1 REVERT JUMPDEST CALLVALUE PUSH3 0x174 JUMPI PUSH3 0x1BF CALLDATASIZE PUSH3 0x1272 JUMP JUMPDEST PUSH0 DUP3 DUP2 MSTORE PUSH1 0x20 DUP2 SWAP1 MSTORE PUSH1 0x40 SWAP1 KECCAK256 PUSH1 0x3 ADD SLOAD PUSH1 0x1 PUSH1 0x1 PUSH1 0xA0 SHL SUB SWAP1 DUP2 AND ISZERO PUSH3 0x19C JUMPI DUP3 PUSH0 MSTORE PUSH0 PUSH1 0x20 MSTORE PUSH1 0x3 PUSH1 0x40 PUSH0 KECCAK256 ADD SLOAD AND CALLER SUB PUSH3 0x18A JUMPI DUP2 PUSH0 MSTORE PUSH0 PUSH1 0x20 MSTORE PUSH1 0xFF PUSH1 0xE PUSH1 0x40 PUSH0 KECCAK256 ADD SLOAD AND ISZERO PUSH3 0x178 JUMPI DUP2 PUSH0 MSTORE PUSH0 PUSH1 0x20 MSTORE PUSH1 0x9 PUSH1 0x40 DUP1 PUSH0 KECCAK256 SWAP3 DUP1 CALLDATALOAD PUSH1 0x7 DUP6 ADD SSTORE PUSH1 0x20 DUP2 ADD CALLDATALOAD PUSH1 0x8 DUP6 ADD SSTORE ADD CALLDATALOAD SWAP2 ADD SSTORE PUSH32 0x942CF7ABE001C0241E54CB1CA85F0B7DEB7A7C9531AD59F48B29B125C5CFE541 PUSH0 DUP1 LOG2 STOP JUMPDEST CALLVALUE PUSH3 0x174 JUMPI PUSH2 0x200 CALLDATASIZE PUSH1 0x3 NOT ADD SLT PUSH3 0x174 JUMPI PUSH1 0x4 CALLDATALOAD PUSH8 0xFFFFFFFFFFFFFFFF DUP2 GT PUSH3 0x174 JUMPI PUSH3 0x292 SWAP1 CALLDATASIZE SWAP1 PUSH1 0x4 ADD PUSH3 0x1241 JUMP JUMPDEST SWAP1 PUSH1 0x24 CALLDATALOAD PUSH8 0xFFFFFFFFFFFFFFFF DUP2 GT PUSH3 0x174 JUMPI PUSH3 0x2B6 SWAP1 CALLDATASIZE SWAP1 PUSH1 0x4 ADD PUSH3 0x1241 JUMP JUMPDEST SWAP2 SWAP1 PUSH1 0xC0 CALLDATASIZE PUSH1 0x43 NOT ADD SLT PUSH3 0x174 JUMPI PUSH1 0x60 CALLDATASIZE PUSH2 0x103 NOT ADD SLT PUSH3 0x174 JUMPI PUSH1 0x60 CALLDATASIZE PUSH2 0x163 NOT ADD SLT PUSH3 0x174 JUMPI PUSH2 0x1C4 CALLDATALOAD PUSH8 0xFFFFFFFFFFFFFFFF DUP2 GT PUSH3 0x174 JUMPI PUSH3 0x305 SWAP1 CALLDATASIZE SWAP1 PUSH1 0x4 ADD PUSH3 0x1241 JUMP JUMPDEST PUSH2 0x1E4 SWAP5 SWAP2 SWAP5 CALLDATALOAD PUSH8 0xFFFFFFFFFFFFFFFF DUP2 GT PUSH3 0x174 JUMPI PUSH3 0x32C SWAP1 CALLDATASIZE SWAP1 PUSH1 0x4 ADD PUSH3 0x1241 JUMP JUMPDEST SWAP2 SWAP1 SWAP6 DUP8 ISZERO PUSH3 0xAFA JUMPI DUP2 ISZERO PUSH3 0xAE8 JUMPI PUSH1 0x44 CALLDATALOAD PUSH2 0xFFFF DUP2 AND DUP1 SWAP2 SUB PUSH3 0x174 JUMPI PUSH1 0x64 CALLDATALOAD PUSH2 0xFFFF DUP2 AND DUP1 SWAP2 SUB PUSH3 0x174 JUMPI PUSH3 0x368 SWAP2 PUSH3 0x14A5 JUMP JUMPDEST PUSH2 0xFFFF PUSH1 0x84 CALLDATALOAD AND SWAP1 DUP2 PUSH1 0x84 CALLDATALOAD SUB PUSH3 0x174 JUMPI PUSH2 0x2710 SWAP2 PUSH3 0x389 SWAP2 PUSH3 0x14A5 JUMP JUMPDEST SUB PUSH3 0xAD6 JUMPI PUSH1 0xA4 CALLDATALOAD PUSH1 0x1 PUSH1 0x1 PUSH1 0xA0 SHL SUB DUP2 AND SWAP1 DUP2 SWAP1 SUB PUSH3 0x174 JUMPI DUP1 ISZERO DUP1 ISZERO PUSH3 0xAB8 JUMPI JUMPDEST DUP1 ISZERO PUSH3 0xA9A JUMPI JUMPDEST PUSH3 0xA46 JUMPI PUSH1 0xC4 CALLDATALOAD PUSH1 0x1 PUSH1 0x1 PUSH1 0xA0 SHL SUB DUP2 AND SWAP1 DUP2 SWAP1 SUB PUSH3 0x174 JUMPI DUP1 DUP3 EQ SWAP2 DUP3 ISZERO PUSH3 0xA77 JUMPI JUMPDEST POP DUP2 ISZERO PUSH3 0xA58 JUMPI JUMPDEST POP PUSH3 0xA46 JUMPI PUSH1 0x1 SLOAD SWAP7 PUSH0 NOT DUP9 EQ PUSH3 0xA32 JUMPI PUSH1 0x1 DUP9 ADD PUSH1 0x1 SSTORE PUSH1 0x40 MLOAD SWAP4 DUP5 PUSH2 0xB2F DUP2 ADD LT PUSH8 0xFFFFFFFFFFFFFFFF PUSH2 0xB2F DUP8 ADD GT OR PUSH3 0x8F7 JUMPI PUSH3 0x447 PUSH3 0x45E SWAP4 DUP7 SWAP6 PUSH2 0xB2F PUSH3 0x14B4 DUP9 CODECOPY PUSH1 0xA0 PUSH2 0xB2F DUP9 ADD DUP2 DUP2 MSTORE ADD SWAP2 PUSH3 0x146B JUMP JUMPDEST SWAP2 PUSH2 0xB2F DUP6 ADD DUP4 SUB PUSH1 0x20 PUSH2 0xB2F DUP8 ADD ADD MSTORE PUSH3 0x146B JUMP JUMPDEST PUSH2 0x184 CALLDATALOAD PUSH1 0x40 PUSH2 0xB2F DUP5 ADD ADD MSTORE ADDRESS PUSH1 0x60 PUSH2 0xB2F DUP5 ADD ADD MSTORE PUSH1 0x12 PUSH1 0x80 PUSH2 0xB2F DUP5 ADD ADD MSTORE SUB SWAP1 PUSH0 CREATE DUP1 ISZERO PUSH3 0xA05 JUMPI PUSH8 0xDE0B6B3A7640000 SWAP2 DUP3 PUSH2 0x184 CALLDATALOAD MUL SWAP3 PUSH2 0x184 CALLDATALOAD DUP5 DIV EQ PUSH2 0x184 CALLDATALOAD ISZERO OR ISZERO PUSH3 0xA32 JUMPI PUSH9 0x1043561A8829300000 PUSH2 0x184 CALLDATALOAD MUL SWAP3 DUP1 DUP5 DIV PUSH2 0x12C EQ DUP2 ISZERO OR ISZERO PUSH3 0xA32 JUMPI DUP1 PUSH2 0x2710 DUP6 DIV DUP2 SUB GT PUSH3 0xA32 JUMPI PUSH1 0x40 MLOAD PUSH4 0xA9059CBB PUSH1 0xE0 SHL DUP2 MSTORE PUSH1 0x1 PUSH1 0x1 PUSH1 0xA0 SHL SUB PUSH32 0x0 AND PUSH1 0x4 DUP3 ADD MSTORE PUSH2 0x2710 DUP6 DIV PUSH1 0x24 DUP3 ADD MSTORE SWAP1 PUSH1 0x20 DUP3 DUP1 PUSH1 0x44 DUP2 ADD SUB DUP2 PUSH0 PUSH1 0x1 PUSH1 0x1 PUSH1 0xA0 SHL SUB DUP10 AND GAS CALL SWAP1 DUP2 ISZERO PUSH3 0xA05 JUMPI PUSH3 0x592 SWAP3 PUSH1 0x20 SWAP3 PUSH3 0xA10 JUMPI JUMPDEST POP PUSH3 0x55C PUSH3 0x12B9 JUMP JUMPDEST PUSH1 0x40 MLOAD PUSH4 0xA9059CBB PUSH1 0xE0 SHL DUP2 MSTORE PUSH1 0x1 PUSH1 0x1 PUSH1 0xA0 SHL SUB SWAP1 SWAP2 AND PUSH1 0x4 DUP3 ADD MSTORE PUSH2 0x2710 DUP8 DIV SWAP1 SWAP2 SUB PUSH1 0x24 DUP3 ADD MSTORE SWAP2 DUP3 SWAP1 DUP2 SWAP1 PUSH1 0x44 DUP3 ADD SWAP1 JUMP JUMPDEST SUB DUP2 PUSH0 PUSH1 0x1 PUSH1 0x1 PUSH1 0xA0 SHL SUB DUP9 AND GAS CALL DUP1 ISZERO PUSH3 0xA05 JUMPI PUSH3 0x9CF JUMPI JUMPDEST POP DUP6 PUSH0 MSTORE PUSH0 PUSH1 0x20 MSTORE PUSH1 0x40 PUSH0 KECCAK256 SWAP4 DUP7 DUP6 SSTORE PUSH8 0xFFFFFFFFFFFFFFFF DUP9 GT PUSH3 0x8F7 JUMPI PUSH3 0x5DD PUSH1 0x1 DUP7 ADD SLOAD PUSH3 0x1382 JUMP JUMPDEST PUSH1 0x1F DUP2 GT PUSH3 0x986 JUMPI JUMPDEST POP DUP8 PUSH0 PUSH1 0x1F DUP3 GT PUSH1 0x1 EQ PUSH3 0x917 JUMPI PUSH0 SWAP2 PUSH3 0x90B JUMPI JUMPDEST POP DUP9 PUSH1 0x1 SHL SWAP1 PUSH0 NOT DUP11 PUSH1 0x3 SHL SHR NOT AND OR PUSH1 0x1 DUP7 ADD SSTORE JUMPDEST PUSH8 0xFFFFFFFFFFFFFFFF DUP3 GT PUSH3 0x8F7 JUMPI DUP2 SWAP1 PUSH3 0x635 PUSH1 0x2 DUP8 ADD SLOAD PUSH3 0x1382 JUMP JUMPDEST PUSH1 0x1F DUP2 GT PUSH3 0x8A2 JUMPI JUMPDEST POP PUSH0 SWAP1 PUSH1 0x1F DUP4 GT PUSH1 0x1 EQ PUSH3 0x830 JUMPI PUSH0 SWAP3 PUSH3 0x824 JUMPI JUMPDEST POP POP DUP2 PUSH1 0x1 SHL SWAP2 PUSH0 NOT SWAP1 PUSH1 0x3 SHL SHR NOT AND OR PUSH1 0x2 DUP5 ADD SSTORE JUMPDEST PUSH1 0x3 DUP4 ADD DUP1 SLOAD PUSH1 0x1 PUSH1 0x1 PUSH1 0xA0 SHL SUB NOT SWAP1 DUP2 AND CALLER OR SWAP1 SWAP2 SSTORE SWAP4 PUSH1 0x4 DUP5 ADD PUSH2 0xFFFF PUSH3 0x696 PUSH3 0x1295 JUMP JUMPDEST AND DUP2 SLOAD SWAP1 PUSH4 0xFFFF0000 PUSH3 0x6A9 PUSH3 0x12A7 JUMP JUMPDEST PUSH1 0x10 SHL AND SWAP1 PUSH7 0x1000000000000 PUSH1 0x1 PUSH1 0xD0 SHL SUB PUSH3 0x6C6 PUSH3 0x12B9 JUMP JUMPDEST PUSH1 0x30 SHL AND SWAP3 PUSH6 0xFFFFFFFFFFFF PUSH1 0xD0 SHL AND OR OR PUSH6 0xFFFF00000000 PUSH1 0x84 CALLDATALOAD PUSH1 0x20 SHL AND OR OR SWAP1 SSTORE PUSH1 0x5 DUP5 ADD PUSH1 0x1 DUP1 PUSH1 0xA0 SHL SUB PUSH3 0x6FF PUSH3 0x12D0 JUMP JUMPDEST DUP3 SLOAD DUP9 AND SWAP2 AND OR SWAP1 SSTORE PUSH1 0x6 DUP5 ADD PUSH1 0x1 PUSH1 0x1 PUSH1 0xA0 SHL SUB PUSH1 0xE4 CALLDATALOAD SWAP1 DUP2 AND SWAP1 DUP2 SWAP1 SUB PUSH3 0x174 JUMPI DUP2 SLOAD DUP8 AND OR SWAP1 SSTORE PUSH2 0x104 CALLDATALOAD PUSH1 0x7 DUP6 ADD SSTORE PUSH2 0x124 CALLDATALOAD PUSH1 0x8 DUP6 ADD SSTORE PUSH2 0x144 CALLDATALOAD PUSH1 0x9 DUP6 ADD SSTORE PUSH1 0xA DUP5 ADD SWAP3 PUSH2 0x164 CALLDATALOAD PUSH1 0x1 PUSH1 0x1 PUSH1 0xA0 SHL SUB DUP2 AND SUB PUSH3 0x174 JUMPI PUSH1 0x20 SWAP8 DUP8 PUSH32 0x2963748485BFA9355F742A7DF0403D3195C000CBD62A9973895A16F703BA382E PUSH3 0x7FC PUSH2 0x2710 SWAP6 PUSH1 0xE PUSH32 0xDC00C66624B323AB9355E9F43641A4356213D3B7FF59604457E114DDBDC526ED SWAP11 DUP11 DUP7 SWAP14 PUSH1 0x60 SWAP13 SLOAD AND PUSH2 0x184 CALLDATALOAD PUSH1 0xB DUP5 ADD SSTORE PUSH2 0x1A4 CALLDATALOAD PUSH1 0xC DUP5 ADD SSTORE PUSH1 0x1 DUP1 PUSH1 0xA0 SHL SUB DUP13 AND OR SWAP1 SSTORE TIMESTAMP PUSH1 0xD DUP3 ADD SSTORE ADD PUSH1 0x1 PUSH1 0xFF NOT DUP3 SLOAD AND OR SWAP1 SSTORE PUSH1 0x40 MLOAD SWAP2 DUP3 SWAP2 DUP15 DUP4 MSTORE CALLER SWAP7 DUP16 DUP5 ADD SWAP2 PUSH3 0x146B JUMP JUMPDEST SUB SWAP1 LOG3 PUSH1 0x40 MLOAD SWAP3 PUSH1 0x1 DUP1 PUSH1 0xA0 SHL SUB AND DUP4 MSTORE PUSH2 0x184 CALLDATALOAD DUP9 DUP5 ADD MSTORE DIV PUSH1 0x40 DUP3 ADD MSTORE LOG2 PUSH1 0x40 MLOAD SWAP1 DUP2 MSTORE RETURN JUMPDEST ADD CALLDATALOAD SWAP1 POP DUP9 DUP1 PUSH3 0x656 JUMP JUMPDEST SWAP1 SWAP3 POP PUSH1 0x2 DUP7 ADD PUSH0 MSTORE PUSH1 0x20 PUSH0 KECCAK256 SWAP1 PUSH0 SWAP4 JUMPDEST PUSH1 0x1F NOT DUP5 AND DUP6 LT PUSH3 0x889 JUMPI PUSH1 0x1 SWAP5 POP DUP4 PUSH1 0x1F NOT DUP2 AND LT PUSH3 0x86F JUMPI JUMPDEST POP POP POP DUP2 SHL ADD PUSH1 0x2 DUP5 ADD SSTORE PUSH3 0x66D JUMP JUMPDEST ADD CALLDATALOAD PUSH0 NOT PUSH1 0x3 DUP5 SWAP1 SHL PUSH1 0xF8 AND SHR NOT AND SWAP1 SSTORE DUP9 DUP1 DUP1 PUSH3 0x85E JUMP JUMPDEST DUP2 DUP2 ADD CALLDATALOAD DUP4 SSTORE PUSH1 0x20 SWAP5 DUP6 ADD SWAP5 PUSH1 0x1 SWAP1 SWAP4 ADD SWAP3 ADD PUSH3 0x841 JUMP JUMPDEST SWAP1 SWAP2 POP PUSH1 0x2 DUP7 ADD PUSH0 MSTORE PUSH1 0x20 PUSH0 KECCAK256 PUSH1 0x1F DUP5 ADD PUSH1 0x5 SHR DUP2 ADD PUSH1 0x20 DUP6 LT PUSH3 0x8EF JUMPI JUMPDEST SWAP1 DUP5 SWAP4 SWAP3 SWAP2 JUMPDEST PUSH1 0x1F DUP4 ADD PUSH1 0x5 SHR DUP3 ADD DUP2 LT PUSH3 0x8E0 JUMPI POP POP PUSH3 0x63F JUMP JUMPDEST PUSH0 DUP2 SSTORE DUP6 SWAP5 POP PUSH1 0x1 ADD PUSH3 0x8C8 JUMP JUMPDEST POP DUP1 PUSH3 0x8C2 JUMP JUMPDEST PUSH4 0x4E487B71 PUSH1 0xE0 SHL PUSH0 MSTORE PUSH1 0x41 PUSH1 0x4 MSTORE PUSH1 0x24 PUSH0 REVERT JUMPDEST SWAP1 POP DUP7 ADD CALLDATALOAD DUP10 PUSH3 0x5FE JUMP JUMPDEST SWAP1 POP PUSH1 0x1 DUP7 ADD PUSH0 MSTORE PUSH1 0x20 PUSH0 KECCAK256 SWAP1 PUSH0 JUMPDEST PUSH1 0x1F NOT DUP12 AND DUP2 LT PUSH3 0x96D JUMPI POP DUP10 PUSH1 0x1F NOT DUP2 AND LT PUSH3 0x953 JUMPI JUMPDEST POP POP PUSH1 0x1 DUP9 DUP2 SHL ADD PUSH1 0x1 DUP7 ADD SSTORE PUSH3 0x614 JUMP JUMPDEST DUP8 ADD CALLDATALOAD PUSH0 NOT PUSH1 0x3 DUP12 SWAP1 SHL PUSH1 0xF8 AND SHR NOT AND SWAP1 SSTORE DUP9 DUP1 PUSH3 0x940 JUMP JUMPDEST SWAP1 SWAP2 PUSH1 0x20 PUSH1 0x1 DUP2 SWAP3 DUP6 DUP13 ADD CALLDATALOAD DUP2 SSTORE ADD SWAP4 ADD SWAP2 ADD PUSH3 0x926 JUMP JUMPDEST PUSH1 0x1 DUP7 ADD PUSH0 MSTORE PUSH1 0x20 PUSH0 KECCAK256 PUSH1 0x1F DUP11 ADD PUSH1 0x5 SHR DUP2 ADD PUSH1 0x20 DUP12 LT PUSH3 0x9C7 JUMPI JUMPDEST PUSH1 0x1F DUP4 ADD PUSH1 0x5 SHR DUP3 ADD DUP2 LT PUSH3 0x9BB JUMPI POP POP PUSH3 0x5E7 JUMP JUMPDEST PUSH0 DUP2 SSTORE PUSH1 0x1 ADD PUSH3 0x9A3 JUMP JUMPDEST POP DUP1 PUSH3 0x9A3 JUMP JUMPDEST PUSH3 0x9F5 SWAP1 PUSH1 0x20 RETURNDATASIZE PUSH1 0x20 GT PUSH3 0x9FD JUMPI JUMPDEST PUSH3 0x9EC DUP2 DUP4 PUSH3 0x133F JUMP JUMPDEST DUP2 ADD SWAP1 PUSH3 0x148B JUMP JUMPDEST POP DUP8 PUSH3 0x5AE JUMP JUMPDEST POP RETURNDATASIZE PUSH3 0x9E0 JUMP JUMPDEST PUSH1 0x40 MLOAD RETURNDATASIZE PUSH0 DUP3 RETURNDATACOPY RETURNDATASIZE SWAP1 REVERT JUMPDEST PUSH3 0xA2A SWAP1 DUP4 RETURNDATASIZE DUP6 GT PUSH3 0x9FD JUMPI PUSH3 0x9EC DUP2 DUP4 PUSH3 0x133F JUMP JUMPDEST POP DUP11 PUSH3 0x551 JUMP JUMPDEST PUSH4 0x4E487B71 PUSH1 0xE0 SHL PUSH0 MSTORE PUSH1 0x11 PUSH1 0x4 MSTORE PUSH1 0x24 PUSH0 REVERT JUMPDEST PUSH1 0x40 MLOAD PUSH4 0xE6C4247B PUSH1 0xE0 SHL DUP2 MSTORE PUSH1 0x4 SWAP1 REVERT JUMPDEST PUSH1 0xE4 CALLDATALOAD PUSH1 0x1 PUSH1 0x1 PUSH1 0xA0 SHL SUB DUP2 AND SWAP3 POP DUP3 SWAP1 SUB PUSH3 0x174 JUMPI EQ DUP10 PUSH3 0x3E7 JUMP JUMPDEST SWAP1 SWAP2 POP PUSH1 0xE4 CALLDATALOAD PUSH1 0x1 PUSH1 0x1 PUSH1 0xA0 SHL SUB DUP2 AND SWAP2 SWAP1 DUP3 SWAP1 SUB PUSH3 0x174 JUMPI EQ SWAP1 DUP11 PUSH3 0x3DE JUMP JUMPDEST POP PUSH1 0xE4 CALLDATALOAD PUSH1 0x1 PUSH1 0x1 PUSH1 0xA0 SHL SUB DUP2 AND SWAP1 DUP2 SWAP1 SUB PUSH3 0x174 JUMPI ISZERO PUSH3 0x3B7 JUMP JUMPDEST POP PUSH1 0xC4 CALLDATALOAD PUSH1 0x1 PUSH1 0x1 PUSH1 0xA0 SHL SUB DUP2 AND SWAP1 DUP2 SWAP1 SUB PUSH3 0x174 JUMPI ISZERO PUSH3 0x3AF JUMP JUMPDEST PUSH1 0x40 MLOAD PUSH4 0x6EDCC523 PUSH1 0xE0 SHL DUP2 MSTORE PUSH1 0x4 SWAP1 REVERT JUMPDEST PUSH1 0x40 MLOAD PUSH4 0xE2592AED PUSH1 0xE0 SHL DUP2 MSTORE PUSH1 0x4 SWAP1 REVERT JUMPDEST PUSH1 0x40 MLOAD PUSH4 0x2EF13105 PUSH1 0xE0 SHL DUP2 MSTORE PUSH1 0x4 SWAP1 REVERT JUMPDEST CALLVALUE PUSH3 0x174 JUMPI PUSH0 CALLDATASIZE PUSH1 0x3 NOT ADD SLT PUSH3 0x174 JUMPI PUSH1 0x20 PUSH1 0x40 MLOAD PUSH2 0x12C DUP2 MSTORE RETURN JUMPDEST CALLVALUE PUSH3 0x174 JUMPI PUSH0 CALLDATASIZE PUSH1 0x3 NOT ADD SLT PUSH3 0x174 JUMPI PUSH1 0x20 PUSH1 0x1 SLOAD PUSH1 0x40 MLOAD SWAP1 DUP2 MSTORE RETURN JUMPDEST CALLVALUE PUSH3 0x174 JUMPI PUSH1 0x20 CALLDATASIZE PUSH1 0x3 NOT ADD SLT PUSH3 0x174 JUMPI PUSH1 0x4 CALLDATALOAD PUSH0 MSTORE PUSH0 PUSH1 0x20 MSTORE PUSH1 0x20 PUSH1 0xFF PUSH1 0xE PUSH1 0x40 PUSH0 KECCAK256 ADD SLOAD AND PUSH1 0x40 MLOAD SWAP1 ISZERO ISZERO DUP2 MSTORE RETURN JUMPDEST CALLVALUE PUSH3 0x174 JUMPI PUSH1 0x20 CALLDATASIZE PUSH1 0x3 NOT ADD SLT PUSH3 0x174 JUMPI PUSH1 0x4 CALLDATALOAD PUSH0 PUSH2 0x100 PUSH1 0x40 MLOAD PUSH3 0xBA4 DUP2 PUSH3 0x12E7 JUMP JUMPDEST DUP3 DUP2 MSTORE PUSH1 0x60 PUSH1 0x20 DUP3 ADD MSTORE PUSH1 0x60 PUSH1 0x40 DUP3 ADD MSTORE DUP3 PUSH1 0x60 DUP3 ADD MSTORE PUSH1 0x40 MLOAD PUSH3 0xBC9 DUP2 PUSH3 0x1305 JUMP JUMPDEST DUP4 DUP2 MSTORE DUP4 PUSH1 0x20 DUP3 ADD MSTORE DUP4 PUSH1 0x40 DUP3 ADD MSTORE DUP4 PUSH1 0x60 DUP3 ADD MSTORE DUP4 PUSH1 0x80 DUP3 ADD MSTORE DUP4 PUSH1 0xA0 DUP3 ADD MSTORE PUSH1 0x80 DUP3 ADD MSTORE PUSH3 0xBF9 PUSH3 0x1362 JUMP JUMPDEST PUSH1 0xA0 DUP3 ADD MSTORE PUSH3 0xC08 PUSH3 0x1362 JUMP JUMPDEST PUSH1 0xC0 DUP3 ADD MSTORE PUSH1 0xE0 DUP2 ADD DUP4 SWAP1 MSTORE ADD MSTORE PUSH0 DUP2 DUP2 MSTORE PUSH1 0x20 DUP2 SWAP1 MSTORE PUSH1 0x40 SWAP1 KECCAK256 PUSH1 0x3 ADD SLOAD PUSH1 0x1 PUSH1 0x1 PUSH1 0xA0 SHL SUB AND ISZERO PUSH3 0x19C JUMPI PUSH0 MSTORE PUSH0 PUSH1 0x20 MSTORE PUSH1 0x40 PUSH0 KECCAK256 PUSH1 0xFF PUSH1 0xE PUSH1 0x40 MLOAD SWAP3 PUSH3 0xC53 DUP5 PUSH3 0x12E7 JUMP JUMPDEST DUP1 SLOAD DUP5 MSTORE PUSH3 0xC65 PUSH1 0x1 DUP3 ADD PUSH3 0x13BD JUMP JUMPDEST PUSH1 0x20 DUP6 ADD MSTORE PUSH3 0xC78 PUSH1 0x2 DUP3 ADD PUSH3 0x13BD JUMP JUMPDEST PUSH1 0x40 DUP6 DUP2 ADD SWAP2 SWAP1 SWAP2 MSTORE PUSH1 0x3 DUP3 ADD SLOAD PUSH1 0x1 PUSH1 0x1 PUSH1 0xA0 SHL SUB AND PUSH1 0x60 DUP7 ADD MSTORE MLOAD PUSH3 0xCA0 DUP2 PUSH3 0x1305 JUMP JUMPDEST PUSH1 0x4 DUP3 ADD SLOAD PUSH2 0xFFFF DUP2 AND DUP3 MSTORE PUSH2 0xFFFF DUP2 PUSH1 0x10 SHR AND PUSH1 0x20 DUP4 ADD MSTORE PUSH2 0xFFFF DUP2 PUSH1 0x20 SHR AND PUSH1 0x40 DUP4 ADD MSTORE PUSH1 0x1 DUP1 PUSH1 0xA0 SHL SUB SWAP1 PUSH1 0x30 SHR AND PUSH1 0x60 DUP3 ADD MSTORE PUSH1 0x1 DUP1 PUSH1 0xA0 SHL SUB PUSH1 0x5 DUP4 ADD SLOAD AND PUSH1 0x80 DUP3 ADD MSTORE PUSH1 0x1 DUP1 PUSH1 0xA0 SHL SUB PUSH1 0x6 DUP4 ADD SLOAD AND PUSH1 0xA0 DUP3 ADD MSTORE PUSH1 0x80 DUP6 ADD MSTORE PUSH1 0x40 MLOAD PUSH3 0xD0E DUP2 PUSH3 0x1322 JUMP JUMPDEST PUSH1 0x7 DUP3 ADD SLOAD DUP2 MSTORE PUSH1 0x8 DUP3 ADD SLOAD PUSH1 0x20 DUP3 ADD MSTORE PUSH1 0x9 DUP3 ADD SLOAD PUSH1 0x40 DUP3 ADD MSTORE PUSH1 0xA0 DUP6 ADD MSTORE PUSH1 0x40 MLOAD PUSH3 0xD3C DUP2 PUSH3 0x1322 JUMP JUMPDEST PUSH1 0x1 DUP1 PUSH1 0xA0 SHL SUB PUSH1 0xA DUP4 ADD SLOAD AND DUP2 MSTORE PUSH1 0xB DUP3 ADD SLOAD PUSH1 0x20 DUP3 ADD MSTORE PUSH1 0xC DUP3 ADD SLOAD PUSH1 0x40 DUP3 ADD MSTORE PUSH1 0xC0 DUP6 ADD MSTORE PUSH1 0xD DUP2 ADD SLOAD PUSH1 0xE0 DUP6 ADD MSTORE ADD SLOAD AND ISZERO ISZERO PUSH2 0x100 DUP3 ADD MSTORE PUSH1 0x40 MLOAD DUP1 SWAP2 PUSH1 0x20 DUP3 MSTORE DUP1 MLOAD PUSH1 0x20 DUP4 ADD MSTORE PUSH2 0x100 PUSH3 0xDC4 PUSH3 0xDAD PUSH1 0x20 DUP5 ADD MLOAD PUSH2 0x240 PUSH1 0x40 DUP8 ADD MSTORE PUSH2 0x260 DUP7 ADD SWAP1 PUSH3 0x1201 JUMP JUMPDEST PUSH1 0x40 DUP5 ADD MLOAD DUP6 DUP3 SUB PUSH1 0x1F NOT ADD PUSH1 0x60 DUP8 ADD MSTORE PUSH3 0x1201 JUMP JUMPDEST SWAP2 PUSH1 0x1 DUP1 PUSH1 0xA0 SHL SUB PUSH1 0x60 DUP3 ADD MLOAD AND PUSH1 0x80 DUP6 ADD MSTORE PUSH1 0x80 DUP2 ADD MLOAD PUSH2 0xFFFF DUP2 MLOAD AND PUSH1 0xA0 DUP7 ADD MSTORE PUSH2 0xFFFF PUSH1 0x20 DUP3 ADD MLOAD AND PUSH1 0xC0 DUP7 ADD MSTORE PUSH2 0xFFFF PUSH1 0x40 DUP3 ADD MLOAD AND PUSH1 0xE0 DUP7 ADD MSTORE PUSH1 0x1 DUP1 PUSH1 0xA0 SHL SUB PUSH1 0x60 DUP3 ADD MLOAD AND DUP4 DUP7 ADD MSTORE PUSH1 0x1 DUP1 PUSH1 0xA0 SHL SUB PUSH1 0x80 DUP3 ADD MLOAD AND PUSH2 0x120 DUP7 ADD MSTORE PUSH1 0xA0 PUSH1 0x1 DUP1 DUP3 SHL SUB SWAP2 ADD MLOAD AND PUSH2 0x140 DUP6 ADD MSTORE PUSH1 0x40 PUSH1 0xA0 DUP3 ADD MLOAD DUP1 MLOAD PUSH2 0x160 DUP8 ADD MSTORE PUSH1 0x20 DUP2 ADD MLOAD PUSH2 0x180 DUP8 ADD MSTORE ADD MLOAD PUSH2 0x1A0 DUP6 ADD MSTORE PUSH1 0x40 PUSH1 0xC0 DUP3 ADD MLOAD PUSH1 0x1 DUP1 PUSH1 0xA0 SHL SUB DUP2 MLOAD AND PUSH2 0x1C0 DUP8 ADD MSTORE PUSH1 0x20 DUP2 ADD MLOAD PUSH2 0x1E0 DUP8 ADD MSTORE ADD MLOAD PUSH2 0x200 DUP6 ADD MSTORE PUSH1 0xE0 DUP2 ADD MLOAD PUSH2 0x220 DUP6 ADD MSTORE ADD MLOAD ISZERO ISZERO PUSH2 0x240 DUP4 ADD MSTORE SUB SWAP1 RETURN JUMPDEST CALLVALUE PUSH3 0x174 JUMPI PUSH1 0x20 CALLDATASIZE PUSH1 0x3 NOT ADD SLT PUSH3 0x174 JUMPI PUSH1 0x4 CALLDATALOAD PUSH0 MSTORE PUSH0 PUSH1 0x20 MSTORE PUSH1 0x20 PUSH1 0x1 DUP1 PUSH1 0xA0 SHL SUB PUSH1 0x3 PUSH1 0x40 PUSH0 KECCAK256 ADD SLOAD AND PUSH1 0x40 MLOAD SWAP1 DUP2 MSTORE RETURN JUMPDEST CALLVALUE PUSH3 0x174 JUMPI PUSH1 0x20 CALLDATASIZE PUSH1 0x3 NOT ADD SLT PUSH3 0x174 JUMPI PUSH1 0x4 CALLDATALOAD PUSH0 DUP2 DUP2 MSTORE PUSH1 0x20 DUP2 SWAP1 MSTORE PUSH1 0x40 SWAP1 KECCAK256 PUSH1 0x3 ADD SLOAD PUSH1 0x1 PUSH1 0x1 PUSH1 0xA0 SHL SUB SWAP1 DUP2 AND ISZERO PUSH3 0x19C JUMPI DUP2 PUSH0 MSTORE PUSH0 PUSH1 0x20 MSTORE PUSH1 0x3 PUSH1 0x40 PUSH0 KECCAK256 ADD SLOAD AND CALLER SUB PUSH3 0x18A JUMPI DUP1 PUSH0 MSTORE PUSH0 PUSH1 0x20 MSTORE PUSH1 0xFF PUSH1 0xE PUSH1 0x40 PUSH0 KECCAK256 ADD SLOAD AND ISZERO PUSH3 0x178 JUMPI DUP1 PUSH0 MSTORE PUSH0 PUSH1 0x20 MSTORE PUSH1 0xE PUSH1 0x40 PUSH0 KECCAK256 ADD PUSH1 0xFF NOT DUP2 SLOAD AND SWAP1 SSTORE PUSH32 0xED42FE78CC53602227647438E2D3AE5F8941ECFEA7326D0172A68AD350BC7B44 PUSH0 DUP1 LOG2 STOP JUMPDEST CALLVALUE PUSH3 0x174 JUMPI PUSH1 0xE0 CALLDATASIZE PUSH1 0x3 NOT ADD SLT PUSH3 0x174 JUMPI PUSH1 0x4 CALLDATALOAD PUSH1 0xC0 CALLDATASIZE PUSH1 0x23 NOT ADD SLT PUSH3 0x174 JUMPI PUSH0 DUP2 DUP2 MSTORE PUSH1 0x20 DUP2 SWAP1 MSTORE PUSH1 0x40 SWAP1 KECCAK256 PUSH1 0x3 ADD SLOAD PUSH1 0x1 PUSH1 0x1 PUSH1 0xA0 SHL SUB SWAP1 DUP2 AND ISZERO PUSH3 0x19C JUMPI DUP2 PUSH0 MSTORE PUSH0 PUSH1 0x20 MSTORE DUP1 PUSH1 0x3 PUSH1 0x40 PUSH0 KECCAK256 ADD SLOAD AND CALLER SUB PUSH3 0x18A JUMPI DUP2 PUSH0 MSTORE PUSH0 PUSH1 0x20 MSTORE PUSH1 0xFF PUSH1 0xE PUSH1 0x40 PUSH0 KECCAK256 ADD SLOAD AND ISZERO PUSH3 0x178 JUMPI PUSH1 0x24 CALLDATALOAD PUSH2 0xFFFF DUP1 DUP3 AND DUP1 SWAP3 SUB PUSH3 0x174 JUMPI PUSH1 0x44 CALLDATALOAD DUP2 DUP2 AND DUP1 SWAP2 SUB PUSH3 0x174 JUMPI PUSH3 0x1017 SWAP1 DUP4 PUSH3 0x14A5 JUMP JUMPDEST PUSH1 0x64 CALLDATALOAD SWAP2 DUP3 AND DUP1 SWAP3 SUB PUSH3 0x174 JUMPI PUSH2 0x2710 SWAP2 PUSH3 0x1034 SWAP2 PUSH3 0x14A5 JUMP JUMPDEST SUB PUSH3 0xAD6 JUMPI PUSH1 0x84 CALLDATALOAD DUP3 DUP2 AND SWAP2 DUP3 DUP3 SUB PUSH3 0x174 JUMPI DUP3 ISZERO DUP1 ISZERO PUSH3 0x11A8 JUMPI JUMPDEST DUP1 ISZERO PUSH3 0x1192 JUMPI JUMPDEST PUSH3 0xA46 JUMPI PUSH0 SWAP3 PUSH1 0xA4 CALLDATALOAD DUP6 DUP2 AND DUP1 SWAP2 SUB PUSH3 0x174 JUMPI DUP1 DUP3 EQ SWAP2 DUP3 ISZERO PUSH3 0x1174 JUMPI JUMPDEST POP DUP2 ISZERO PUSH3 0x115C JUMPI JUMPDEST POP PUSH3 0xA46 JUMPI DUP5 PUSH0 MSTORE PUSH0 PUSH1 0x20 MSTORE PUSH1 0x40 PUSH0 KECCAK256 SWAP3 PUSH1 0x4 DUP5 ADD SWAP3 DUP4 SLOAD SWAP3 PUSH4 0xFFFF0000 PUSH3 0x10AE PUSH3 0x1295 JUMP JUMPDEST PUSH1 0x10 SHL AND SWAP2 PUSH6 0xFFFF00000000 PUSH3 0x10C4 PUSH3 0x12A7 JUMP JUMPDEST PUSH1 0x20 SHL AND SWAP4 PUSH3 0x174 JUMPI PUSH1 0x1 PUSH1 0x1 PUSH1 0xD0 SHL SUB NOT SWAP1 SWAP5 AND OR OR OR PUSH1 0x30 SWAP2 SWAP1 SWAP2 SHL PUSH7 0x1000000000000 PUSH1 0x1 PUSH1 0xD0 SHL SUB AND OR SWAP1 SSTORE PUSH1 0x5 DUP2 ADD SWAP1 PUSH1 0x6 SWAP1 DUP4 PUSH3 0x1108 PUSH3 0x12B9 JUMP JUMPDEST AND SWAP3 PUSH12 0xFFFFFFFFFFFFFFFFFFFFFFFF PUSH1 0xA0 SHL SWAP4 DUP5 DUP3 SLOAD AND OR SWAP1 SSTORE ADD SWAP2 PUSH3 0x112E PUSH3 0x12D0 JUMP JUMPDEST AND SWAP1 DUP3 SLOAD AND OR SWAP1 SSTORE PUSH32 0x6A6832E461D555D62A4E056912DB929BAD6F97A0C9DDB75F6238E76D3BD42FF4 PUSH0 DUP1 LOG2 STOP JUMPDEST PUSH1 0xC4 CALLDATALOAD DUP7 DUP2 AND SWAP3 POP DUP3 SWAP1 SUB PUSH3 0x174 JUMPI EQ DUP7 PUSH3 0x1085 JUMP JUMPDEST SWAP5 POP SWAP1 POP PUSH0 SWAP4 PUSH1 0xC4 CALLDATALOAD SWAP1 DUP7 DUP3 AND DUP1 SWAP3 SUB PUSH3 0x174 JUMPI EQ SWAP1 DUP8 PUSH3 0x107C JUMP JUMPDEST POP PUSH1 0xC4 CALLDATALOAD DUP5 DUP2 AND DUP1 SWAP2 SUB PUSH3 0x174 JUMPI ISZERO PUSH3 0x105B JUMP JUMPDEST POP PUSH1 0xA4 CALLDATALOAD DUP5 DUP2 AND DUP1 SWAP2 SUB PUSH3 0x174 JUMPI ISZERO PUSH3 0x1053 JUMP JUMPDEST CALLVALUE PUSH3 0x174 JUMPI PUSH0 CALLDATASIZE PUSH1 0x3 NOT ADD SLT PUSH3 0x174 JUMPI PUSH32 0x0 PUSH1 0x1 PUSH1 0x1 PUSH1 0xA0 SHL SUB AND DUP2 MSTORE PUSH1 0x20 SWAP1 RETURN JUMPDEST SWAP2 SWAP1 DUP3 MLOAD SWAP3 DUP4 DUP3 MSTORE PUSH0 JUMPDEST DUP5 DUP2 LT PUSH3 0x122C JUMPI POP POP DUP3 PUSH0 PUSH1 0x20 DUP1 SWAP5 SWAP6 DUP5 ADD ADD MSTORE PUSH1 0x1F DUP1 NOT SWAP2 ADD AND ADD ADD SWAP1 JUMP JUMPDEST PUSH1 0x20 DUP2 DUP4 ADD DUP2 ADD MLOAD DUP5 DUP4 ADD DUP3 ADD MSTORE ADD PUSH3 0x120B JUMP JUMPDEST SWAP2 DUP2 PUSH1 0x1F DUP5 ADD SLT ISZERO PUSH3 0x174 JUMPI DUP3 CALLDATALOAD SWAP2 PUSH8 0xFFFFFFFFFFFFFFFF DUP4 GT PUSH3 0x174 JUMPI PUSH1 0x20 DUP4 DUP2 DUP7 ADD SWAP6 ADD ADD GT PUSH3 0x174 JUMPI JUMP JUMPDEST SWAP1 PUSH1 0x80 PUSH1 0x3 NOT DUP4 ADD SLT PUSH3 0x174 JUMPI PUSH1 0x60 PUSH1 0x4 CALLDATALOAD SWAP3 PUSH1 0x23 NOT ADD SLT PUSH3 0x174 JUMPI PUSH1 0x24 SWAP1 JUMP JUMPDEST PUSH1 0x44 CALLDATALOAD PUSH2 0xFFFF DUP2 AND DUP2 SUB PUSH3 0x174 JUMPI SWAP1 JUMP JUMPDEST PUSH1 0x64 CALLDATALOAD PUSH2 0xFFFF DUP2 AND DUP2 SUB PUSH3 0x174 JUMPI SWAP1 JUMP JUMPDEST PUSH1 0xA4 CALLDATALOAD PUSH1 0x1 PUSH1 0x1 PUSH1 0xA0 SHL SUB DUP2 AND DUP2 SUB PUSH3 0x174 JUMPI SWAP1 JUMP JUMPDEST PUSH1 0xC4 CALLDATALOAD PUSH1 0x1 PUSH1 0x1 PUSH1 0xA0 SHL SUB DUP2 AND DUP2 SUB PUSH3 0x174 JUMPI SWAP1 JUMP JUMPDEST PUSH2 0x120 DUP2 ADD SWAP1 DUP2 LT PUSH8 0xFFFFFFFFFFFFFFFF DUP3 GT OR PUSH3 0x8F7 JUMPI PUSH1 0x40 MSTORE JUMP JUMPDEST PUSH1 0xC0 DUP2 ADD SWAP1 DUP2 LT PUSH8 0xFFFFFFFFFFFFFFFF DUP3 GT OR PUSH3 0x8F7 JUMPI PUSH1 0x40 MSTORE JUMP JUMPDEST PUSH1 0x60 DUP2 ADD SWAP1 DUP2 LT PUSH8 0xFFFFFFFFFFFFFFFF DUP3 GT OR PUSH3 0x8F7 JUMPI PUSH1 0x40 MSTORE JUMP JUMPDEST SWAP1 PUSH1 0x1F DUP1 NOT SWAP2 ADD AND DUP2 ADD SWAP1 DUP2 LT PUSH8 0xFFFFFFFFFFFFFFFF DUP3 GT OR PUSH3 0x8F7 JUMPI PUSH1 0x40 MSTORE JUMP JUMPDEST PUSH1 0x40 MLOAD SWAP1 PUSH3 0x1371 DUP3 PUSH3 0x1322 JUMP JUMPDEST PUSH0 PUSH1 0x40 DUP4 DUP3 DUP2 MSTORE DUP3 PUSH1 0x20 DUP3 ADD MSTORE ADD MSTORE JUMP JUMPDEST SWAP1 PUSH1 0x1 DUP3 DUP2 SHR SWAP3 AND DUP1 ISZERO PUSH3 0x13B2 JUMPI JUMPDEST PUSH1 0x20 DUP4 LT EQ PUSH3 0x139E JUMPI JUMP JUMPDEST PUSH4 0x4E487B71 PUSH1 0xE0 SHL PUSH0 MSTORE PUSH1 0x22 PUSH1 0x4 MSTORE PUSH1 0x24 PUSH0 REVERT JUMPDEST SWAP2 PUSH1 0x7F AND SWAP2 PUSH3 0x1392 JUMP JUMPDEST SWAP1 PUSH1 0x40 MLOAD SWAP2 DUP3 PUSH0 DUP3 SLOAD PUSH3 0x13D1 DUP2 PUSH3 0x1382 JUMP JUMPDEST SWAP1 DUP2 DUP5 MSTORE PUSH1 0x20 SWAP5 PUSH1 0x1 SWAP2 PUSH1 0x1 DUP2 AND SWAP1 DUP2 PUSH0 EQ PUSH3 0x1447 JUMPI POP PUSH1 0x1 EQ PUSH3 0x1405 JUMPI JUMPDEST POP POP POP PUSH3 0x1403 SWAP3 POP SUB DUP4 PUSH3 0x133F JUMP JUMPDEST JUMP JUMPDEST PUSH0 SWAP1 DUP2 MSTORE DUP6 DUP2 KECCAK256 SWAP6 SWAP4 POP SWAP2 SWAP1 JUMPDEST DUP2 DUP4 LT PUSH3 0x142E JUMPI POP POP PUSH3 0x1403 SWAP4 POP DUP3 ADD ADD PUSH0 DUP1 DUP1 PUSH3 0x13F2 JUMP JUMPDEST DUP6 SLOAD DUP9 DUP5 ADD DUP6 ADD MSTORE SWAP5 DUP6 ADD SWAP5 DUP8 SWAP5 POP SWAP2 DUP4 ADD SWAP2 PUSH3 0x1412 JUMP JUMPDEST SWAP3 POP POP POP PUSH3 0x1403 SWAP5 SWAP3 POP PUSH1 0xFF NOT AND DUP3 DUP5 ADD MSTORE ISZERO ISZERO PUSH1 0x5 SHL DUP3 ADD ADD PUSH0 DUP1 DUP1 PUSH3 0x13F2 JUMP JUMPDEST SWAP1 DUP1 PUSH1 0x20 SWAP4 SWAP3 DUP2 DUP5 MSTORE DUP5 DUP5 ADD CALLDATACOPY PUSH0 DUP3 DUP3 ADD DUP5 ADD MSTORE PUSH1 0x1F ADD PUSH1 0x1F NOT AND ADD ADD SWAP1 JUMP JUMPDEST SWAP1 DUP2 PUSH1 0x20 SWAP2 SUB SLT PUSH3 0x174 JUMPI MLOAD DUP1 ISZERO ISZERO DUP2 SUB PUSH3 0x174 JUMPI SWAP1 JUMP JUMPDEST SWAP2 SWAP1 DUP3 ADD DUP1 SWAP3 GT PUSH3 0xA32 JUMPI JUMP INVALID PUSH1 0x40 PUSH1 0xA0 DUP2 MSTORE CALLVALUE PUSH3 0x3F0 JUMPI PUSH3 0xB2F DUP1 CODESIZE SUB DUP1 PUSH3 0x1E DUP2 PUSH3 0x3F4 JUMP JUMPDEST SWAP3 DUP4 CODECOPY DUP2 ADD PUSH1 0xA0 DUP3 DUP3 SUB SLT PUSH3 0x3F0 JUMPI DUP2 MLOAD PUSH1 0x1 PUSH1 0x1 PUSH1 0x40 SHL SUB SWAP1 DUP2 DUP2 GT PUSH3 0x3F0 JUMPI DUP3 PUSH3 0x4F SWAP2 DUP6 ADD PUSH3 0x41A JUMP JUMPDEST SWAP1 PUSH1 0x20 SWAP3 DUP4 DUP6 ADD MLOAD SWAP1 DUP3 DUP3 GT PUSH3 0x3F0 JUMPI PUSH3 0x6D SWAP2 DUP7 ADD PUSH3 0x41A JUMP JUMPDEST SWAP1 DUP6 DUP6 ADD MLOAD SWAP3 PUSH1 0x60 DUP7 ADD MLOAD SWAP6 PUSH1 0x1 DUP1 PUSH1 0xA0 SHL SUB DUP8 AND DUP1 SWAP8 SUB PUSH3 0x3F0 JUMPI PUSH1 0x80 ADD MLOAD SWAP1 PUSH1 0xFF DUP3 AND SWAP3 DUP4 DUP4 SUB PUSH3 0x3F0 JUMPI DUP2 MLOAD DUP2 DUP2 GT PUSH3 0x2F6 JUMPI PUSH1 0x3 SWAP1 DUP2 SLOAD SWAP1 PUSH1 0x1 SWAP5 DUP6 DUP4 DUP2 SHR SWAP4 AND DUP1 ISZERO PUSH3 0x3E5 JUMPI JUMPDEST DUP12 DUP5 LT EQ PUSH3 0x3D1 JUMPI DUP2 SWAP1 DUP12 PUSH1 0x1F SWAP5 DUP6 DUP2 GT PUSH3 0x37B JUMPI JUMPDEST POP POP DUP12 SWAP1 DUP5 DUP4 GT PUSH1 0x1 EQ PUSH3 0x316 JUMPI PUSH0 SWAP3 PUSH3 0x30A JUMPI JUMPDEST POP POP PUSH0 NOT DUP3 DUP6 SHL SHR NOT AND SWAP1 DUP6 SHL OR DUP3 SSTORE JUMPDEST DUP7 MLOAD SWAP3 DUP4 GT PUSH3 0x2F6 JUMPI PUSH1 0x4 SWAP7 DUP8 SLOAD DUP6 DUP2 DUP2 SHR SWAP2 AND DUP1 ISZERO PUSH3 0x2EB JUMPI JUMPDEST DUP12 DUP3 LT EQ PUSH3 0x2D8 JUMPI DUP3 DUP2 GT PUSH3 0x290 JUMPI JUMPDEST POP DUP10 SWAP2 DUP5 GT PUSH1 0x1 EQ PUSH3 0x229 JUMPI SWAP4 DUP4 SWAP5 SWAP2 DUP5 SWAP3 PUSH0 SWAP6 PUSH3 0x21D JUMPI JUMPDEST POP POP SHL SWAP3 PUSH0 NOT SWAP2 SHL SHR NOT AND OR DUP4 SSTORE JUMPDEST PUSH1 0x80 MSTORE PUSH1 0x4D DUP2 GT PUSH3 0x20A JUMPI PUSH1 0xA EXP SWAP2 DUP3 DUP2 MUL SWAP3 DUP2 DUP5 DIV EQ SWAP1 ISZERO OR ISZERO PUSH3 0x1E1 JUMPI DUP4 ISZERO PUSH3 0x1F4 JUMPI PUSH1 0x2 SLOAD SWAP1 DUP3 DUP3 ADD DUP1 SWAP3 GT PUSH3 0x1E1 JUMPI POP PUSH1 0x2 SSTORE PUSH0 DUP4 DUP2 MSTORE DUP1 DUP4 MSTORE DUP5 DUP2 KECCAK256 DUP1 SLOAD DUP4 ADD SWAP1 SSTORE DUP5 MLOAD SWAP2 DUP3 MSTORE SWAP2 PUSH32 0xDDF252AD1BE2C89B69C2B068FC378DAA952BA7F163C4A11628F55A4DF523B3EF SWAP2 LOG3 MLOAD PUSH2 0x6A4 SWAP1 DUP2 PUSH3 0x48B DUP3 CODECOPY PUSH1 0x80 MLOAD DUP2 PUSH2 0x26D ADD MSTORE RETURN JUMPDEST PUSH1 0x11 SWAP1 PUSH4 0x4E487B71 PUSH1 0xE0 SHL PUSH0 MSTORE MSTORE PUSH1 0x24 PUSH0 REVERT JUMPDEST PUSH1 0x24 SWAP1 PUSH0 DUP7 MLOAD SWAP2 PUSH4 0xEC442F05 PUSH1 0xE0 SHL DUP4 MSTORE DUP3 ADD MSTORE REVERT JUMPDEST PUSH1 0x11 DUP3 PUSH4 0x4E487B71 PUSH1 0xE0 SHL PUSH0 MSTORE MSTORE PUSH1 0x24 PUSH0 REVERT JUMPDEST ADD MLOAD SWAP4 POP PUSH0 DUP1 PUSH3 0x147 JUMP JUMPDEST SWAP2 SWAP1 PUSH1 0x1F NOT DUP5 AND SWAP3 DUP9 PUSH0 MSTORE DUP5 DUP12 PUSH0 KECCAK256 SWAP5 PUSH0 JUMPDEST DUP14 DUP10 DUP4 DUP4 LT PUSH3 0x278 JUMPI POP POP POP LT PUSH3 0x25E JUMPI JUMPDEST POP POP POP POP DUP2 SHL ADD DUP4 SSTORE PUSH3 0x156 JUMP JUMPDEST ADD MLOAD SWAP1 PUSH1 0xF8 DUP5 PUSH0 NOT SWAP3 SHL AND SHR NOT AND SWAP1 SSTORE PUSH0 DUP1 DUP1 DUP1 PUSH3 0x24F JUMP JUMPDEST DUP7 DUP7 ADD MLOAD DUP10 SSTORE SWAP1 SWAP8 ADD SWAP7 SWAP5 DUP6 ADD SWAP5 DUP9 SWAP4 POP ADD PUSH3 0x23B JUMP JUMPDEST DUP9 PUSH0 MSTORE DUP11 PUSH0 KECCAK256 DUP4 DUP1 DUP8 ADD PUSH1 0x5 SHR DUP3 ADD SWAP3 DUP14 DUP9 LT PUSH3 0x2CE JUMPI JUMPDEST ADD PUSH1 0x5 SHR ADD SWAP1 DUP7 SWAP1 JUMPDEST DUP3 DUP2 LT PUSH3 0x2C2 JUMPI POP POP PUSH3 0x12C JUMP JUMPDEST PUSH0 DUP2 SSTORE ADD DUP7 SWAP1 PUSH3 0x2B2 JUMP JUMPDEST SWAP3 POP DUP2 SWAP3 PUSH3 0x2A9 JUMP JUMPDEST PUSH1 0x22 DUP10 PUSH4 0x4E487B71 PUSH1 0xE0 SHL PUSH0 MSTORE MSTORE PUSH1 0x24 PUSH0 REVERT JUMPDEST SWAP1 PUSH1 0x7F AND SWAP1 PUSH3 0x11A JUMP JUMPDEST PUSH4 0x4E487B71 PUSH1 0xE0 SHL PUSH0 MSTORE PUSH1 0x41 PUSH1 0x4 MSTORE PUSH1 0x24 PUSH0 REVERT JUMPDEST ADD MLOAD SWAP1 POP PUSH0 DUP1 PUSH3 0xEC JUMP JUMPDEST PUSH0 DUP7 DUP2 MSTORE DUP14 DUP2 KECCAK256 DUP10 SWAP6 POP SWAP3 SWAP2 SWAP1 PUSH1 0x1F NOT DUP6 AND SWAP1 DUP16 JUMPDEST DUP3 DUP3 LT PUSH3 0x363 JUMPI POP POP DUP5 GT PUSH3 0x34B JUMPI JUMPDEST POP POP POP DUP2 SHL ADD DUP3 SSTORE PUSH3 0xFD JUMP JUMPDEST ADD MLOAD PUSH0 NOT DUP4 DUP8 SHL PUSH1 0xF8 AND SHR NOT AND SWAP1 SSTORE PUSH0 DUP1 DUP1 PUSH3 0x33D JUMP JUMPDEST DUP4 DUP6 ADD MLOAD DUP7 SSTORE DUP12 SWAP8 SWAP1 SWAP6 ADD SWAP5 SWAP4 DUP5 ADD SWAP4 ADD DUP16 PUSH3 0x32B JUMP JUMPDEST SWAP1 SWAP2 SWAP3 POP DUP6 PUSH0 MSTORE DUP5 DUP3 PUSH0 KECCAK256 SWAP2 DUP2 DUP7 ADD PUSH1 0x5 SHR DUP4 ADD SWAP4 DUP7 LT PUSH3 0x3C7 JUMPI JUMPDEST SWAP2 DUP10 SWAP2 DUP7 SWAP6 SWAP5 SWAP4 ADD PUSH1 0x5 SHR ADD SWAP2 JUMPDEST DUP3 DUP2 LT PUSH3 0x3B8 JUMPI POP DUP14 SWAP2 POP PUSH3 0xD5 JUMP JUMPDEST PUSH0 DUP2 SSTORE DUP6 SWAP5 POP DUP10 SWAP2 ADD PUSH3 0x3A6 JUMP JUMPDEST SWAP3 POP DUP2 SWAP3 PUSH3 0x398 JUMP JUMPDEST PUSH4 0x4E487B71 PUSH1 0xE0 SHL PUSH0 MSTORE PUSH1 0x22 PUSH1 0x4 MSTORE PUSH1 0x24 PUSH0 REVERT JUMPDEST SWAP3 PUSH1 0x7F AND SWAP3 PUSH3 0xBD JUMP JUMPDEST PUSH0 DUP1 REVERT JUMPDEST PUSH1 0x40 MLOAD SWAP2 SWAP1 PUSH1 0x1F ADD PUSH1 0x1F NOT AND DUP3 ADD PUSH1 0x1 PUSH1 0x1 PUSH1 0x40 SHL SUB DUP2 GT DUP4 DUP3 LT OR PUSH3 0x2F6 JUMPI PUSH1 0x40 MSTORE JUMP JUMPDEST SWAP2 SWAP1 DUP1 PUSH1 0x1F DUP5 ADD SLT ISZERO PUSH3 0x3F0 JUMPI DUP3 MLOAD PUSH1 0x1 PUSH1 0x1 PUSH1 0x40 SHL SUB DUP2 GT PUSH3 0x2F6 JUMPI PUSH1 0x20 SWAP1 PUSH3 0x450 PUSH1 0x1F DUP3 ADD PUSH1 0x1F NOT AND DUP4 ADD PUSH3 0x3F4 JUMP JUMPDEST SWAP3 DUP2 DUP5 MSTORE DUP3 DUP3 DUP8 ADD ADD GT PUSH3 0x3F0 JUMPI PUSH0 JUMPDEST DUP2 DUP2 LT PUSH3 0x476 JUMPI POP DUP3 PUSH0 SWAP4 SWAP5 SWAP6 POP ADD ADD MSTORE SWAP1 JUMP JUMPDEST DUP6 DUP2 ADD DUP4 ADD MLOAD DUP5 DUP3 ADD DUP5 ADD MSTORE DUP3 ADD PUSH3 0x461 JUMP INVALID PUSH1 0x80 PUSH1 0x40 SWAP1 DUP1 DUP3 MSTORE PUSH1 0x4 DUP1 CALLDATASIZE LT ISZERO PUSH2 0x15 JUMPI PUSH0 DUP1 REVERT JUMPDEST PUSH0 CALLDATALOAD PUSH1 0xE0 SHR SWAP2 DUP3 PUSH4 0x6FDDE03 EQ PUSH2 0x449 JUMPI POP DUP2 PUSH4 0x95EA7B3 EQ PUSH2 0x3A1 JUMPI DUP2 PUSH4 0x18160DDD EQ PUSH2 0x383 JUMPI DUP2 PUSH4 0x23B872DD EQ PUSH2 0x291 JUMPI DUP2 PUSH4 0x313CE567 EQ PUSH2 0x254 JUMPI DUP2 PUSH4 0x70A08231 EQ PUSH2 0x21E JUMPI DUP2 PUSH4 0x95D89B41 EQ PUSH2 0xFF JUMPI POP DUP1 PUSH4 0xA9059CBB EQ PUSH2 0xCF JUMPI PUSH4 0xDD62ED3E EQ PUSH2 0x83 JUMPI PUSH0 DUP1 REVERT JUMPDEST CALLVALUE PUSH2 0xCB JUMPI DUP1 PUSH1 0x3 NOT CALLDATASIZE ADD SLT PUSH2 0xCB JUMPI PUSH1 0x20 SWAP1 PUSH2 0x9E PUSH2 0x568 JUMP JUMPDEST PUSH2 0xA6 PUSH2 0x57E JUMP JUMPDEST SWAP1 PUSH1 0x1 DUP1 PUSH1 0xA0 SHL SUB DUP1 SWAP2 AND PUSH0 MSTORE PUSH1 0x1 DUP5 MSTORE DUP3 PUSH0 KECCAK256 SWAP2 AND PUSH0 MSTORE DUP3 MSTORE DUP1 PUSH0 KECCAK256 SLOAD SWAP1 MLOAD SWAP1 DUP2 MSTORE RETURN JUMPDEST PUSH0 DUP1 REVERT JUMPDEST POP CALLVALUE PUSH2 0xCB JUMPI DUP1 PUSH1 0x3 NOT CALLDATASIZE ADD SLT PUSH2 0xCB JUMPI PUSH1 0x20 SWAP1 PUSH2 0xF8 PUSH2 0xEE PUSH2 0x568 JUMP JUMPDEST PUSH1 0x24 CALLDATALOAD SWAP1 CALLER PUSH2 0x594 JUMP JUMPDEST MLOAD PUSH1 0x1 DUP2 MSTORE RETURN JUMPDEST DUP3 CALLVALUE PUSH2 0xCB JUMPI PUSH0 CALLDATASIZE PUSH1 0x3 NOT ADD SLT PUSH2 0xCB JUMPI DUP1 MLOAD SWAP1 PUSH0 DUP4 SLOAD PUSH1 0x1 DUP2 PUSH1 0x1 SHR SWAP1 PUSH1 0x1 DUP4 AND SWAP3 DUP4 ISZERO PUSH2 0x214 JUMPI JUMPDEST PUSH1 0x20 SWAP4 DUP5 DUP5 LT DUP2 EQ PUSH2 0x201 JUMPI DUP4 DUP9 MSTORE SWAP1 DUP2 ISZERO PUSH2 0x1E5 JUMPI POP PUSH1 0x1 EQ PUSH2 0x191 JUMPI JUMPDEST POP POP POP DUP3 SWAP1 SUB PUSH1 0x1F ADD PUSH1 0x1F NOT AND DUP3 ADD SWAP3 PUSH8 0xFFFFFFFFFFFFFFFF DUP5 GT DUP4 DUP6 LT OR PUSH2 0x17E JUMPI POP DUP3 SWAP2 DUP3 PUSH2 0x17A SWAP3 MSTORE DUP3 PUSH2 0x521 JUMP JUMPDEST SUB SWAP1 RETURN JUMPDEST PUSH1 0x41 SWAP1 PUSH4 0x4E487B71 PUSH1 0xE0 SHL PUSH0 MSTORE MSTORE PUSH1 0x24 PUSH0 REVERT JUMPDEST PUSH0 DUP8 DUP2 MSTORE SWAP3 SWAP4 POP DUP4 PUSH32 0x8A35ACFBC15FF81A39AE7D344FD709F28E8600B4AA8C65C6B64BFE7FE36BD19B JUMPDEST DUP4 DUP6 LT PUSH2 0x1D1 JUMPI POP POP POP POP DUP4 ADD ADD DUP5 DUP1 DUP1 PUSH2 0x148 JUMP JUMPDEST DUP1 SLOAD DUP9 DUP7 ADD DUP4 ADD MSTORE SWAP4 ADD SWAP3 DUP5 SWAP1 DUP3 ADD PUSH2 0x1BB JUMP JUMPDEST PUSH1 0xFF NOT AND DUP8 DUP6 ADD MSTORE POP POP ISZERO ISZERO PUSH1 0x5 SHL DUP5 ADD ADD SWAP1 POP DUP5 DUP1 DUP1 PUSH2 0x148 JUMP JUMPDEST PUSH1 0x22 DUP10 PUSH4 0x4E487B71 PUSH1 0xE0 SHL PUSH0 MSTORE MSTORE PUSH1 0x24 PUSH0 REVERT JUMPDEST SWAP2 PUSH1 0x7F AND SWAP2 PUSH2 0x129 JUMP JUMPDEST DUP3 CALLVALUE PUSH2 0xCB JUMPI PUSH1 0x20 CALLDATASIZE PUSH1 0x3 NOT ADD SLT PUSH2 0xCB JUMPI PUSH1 0x20 SWAP1 PUSH1 0x1 PUSH1 0x1 PUSH1 0xA0 SHL SUB PUSH2 0x243 PUSH2 0x568 JUMP JUMPDEST AND PUSH0 MSTORE PUSH0 DUP3 MSTORE DUP1 PUSH0 KECCAK256 SLOAD SWAP1 MLOAD SWAP1 DUP2 MSTORE RETURN JUMPDEST DUP3 CALLVALUE PUSH2 0xCB JUMPI PUSH0 CALLDATASIZE PUSH1 0x3 NOT ADD SLT PUSH2 0xCB JUMPI PUSH1 0x20 SWAP1 MLOAD PUSH1 0xFF PUSH32 0x0 AND DUP2 MSTORE RETURN JUMPDEST SWAP1 POP CALLVALUE PUSH2 0xCB JUMPI PUSH1 0x60 CALLDATASIZE PUSH1 0x3 NOT ADD SLT PUSH2 0xCB JUMPI PUSH2 0x2AC PUSH2 0x568 JUMP JUMPDEST PUSH2 0x2B4 PUSH2 0x57E JUMP JUMPDEST SWAP1 PUSH1 0x44 CALLDATALOAD SWAP3 PUSH1 0x1 DUP1 PUSH1 0xA0 SHL SUB DUP3 AND DUP1 PUSH0 MSTORE PUSH1 0x1 PUSH1 0x20 MSTORE DUP6 PUSH0 KECCAK256 CALLER PUSH0 MSTORE PUSH1 0x20 MSTORE DUP6 PUSH0 KECCAK256 SLOAD SWAP2 PUSH0 NOT DUP4 LT PUSH2 0x2EF JUMPI JUMPDEST PUSH1 0x20 DUP8 PUSH2 0xF8 DUP9 DUP9 DUP9 PUSH2 0x594 JUMP JUMPDEST DUP6 DUP4 LT PUSH2 0x357 JUMPI DUP2 ISZERO PUSH2 0x341 JUMPI CALLER ISZERO PUSH2 0x32B JUMPI POP PUSH0 SWAP1 DUP2 MSTORE PUSH1 0x1 PUSH1 0x20 SWAP1 DUP2 MSTORE DUP7 DUP3 KECCAK256 CALLER DUP4 MSTORE DUP2 MSTORE SWAP1 DUP7 SWAP1 KECCAK256 SWAP2 DUP6 SWAP1 SUB SWAP1 SWAP2 SSTORE DUP3 SWAP1 PUSH2 0xF8 PUSH2 0x2E1 JUMP JUMPDEST PUSH1 0x24 SWAP1 PUSH0 DUP9 MLOAD SWAP2 PUSH4 0x4A1406B1 PUSH1 0xE1 SHL DUP4 MSTORE DUP3 ADD MSTORE REVERT JUMPDEST PUSH1 0x24 SWAP1 PUSH0 DUP9 MLOAD SWAP2 PUSH4 0xE602DF05 PUSH1 0xE0 SHL DUP4 MSTORE DUP3 ADD MSTORE REVERT JUMPDEST DUP7 MLOAD PUSH4 0x7DC7A0D9 PUSH1 0xE1 SHL DUP2 MSTORE CALLER SWAP2 DUP2 ADD SWAP2 DUP3 MSTORE PUSH1 0x20 DUP3 ADD SWAP4 SWAP1 SWAP4 MSTORE PUSH1 0x40 DUP2 ADD DUP7 SWAP1 MSTORE DUP3 SWAP2 POP PUSH1 0x60 ADD SUB SWAP1 REVERT JUMPDEST DUP3 CALLVALUE PUSH2 0xCB JUMPI PUSH0 CALLDATASIZE PUSH1 0x3 NOT ADD SLT PUSH2 0xCB JUMPI PUSH1 0x20 SWAP1 PUSH1 0x2 SLOAD SWAP1 MLOAD SWAP1 DUP2 MSTORE RETURN JUMPDEST DUP3 CALLVALUE PUSH2 0xCB JUMPI DUP1 PUSH1 0x3 NOT CALLDATASIZE ADD SLT PUSH2 0xCB JUMPI PUSH2 0x3BA PUSH2 0x568 JUMP JUMPDEST PUSH1 0x24 CALLDATALOAD SWAP1 CALLER ISZERO PUSH2 0x433 JUMPI PUSH1 0x1 PUSH1 0x1 PUSH1 0xA0 SHL SUB AND SWAP1 DUP2 ISZERO PUSH2 0x41D JUMPI PUSH1 0x20 SWAP4 POP CALLER PUSH0 MSTORE PUSH1 0x1 DUP5 MSTORE DUP3 PUSH0 KECCAK256 DUP3 PUSH0 MSTORE DUP5 MSTORE DUP1 DUP4 PUSH0 KECCAK256 SSTORE DUP3 MLOAD SWAP1 DUP2 MSTORE PUSH32 0x8C5BE1E5EBEC7D5BD14F71427D1E84F3DD0314C0F7B2291E5B200AC8C7C3B925 DUP5 CALLER SWAP3 LOG3 MLOAD PUSH1 0x1 DUP2 MSTORE RETURN JUMPDEST DUP3 MLOAD PUSH4 0x4A1406B1 PUSH1 0xE1 SHL DUP2 MSTORE PUSH0 DUP2 DUP7 ADD MSTORE PUSH1 0x24 SWAP1 REVERT JUMPDEST DUP3 MLOAD PUSH4 0xE602DF05 PUSH1 0xE0 SHL DUP2 MSTORE PUSH0 DUP2 DUP7 ADD MSTORE PUSH1 0x24 SWAP1 REVERT JUMPDEST DUP4 CALLVALUE PUSH2 0xCB JUMPI PUSH0 CALLDATASIZE PUSH1 0x3 NOT ADD SLT PUSH2 0xCB JUMPI PUSH0 PUSH1 0x3 SLOAD PUSH1 0x1 DUP2 PUSH1 0x1 SHR SWAP1 PUSH1 0x1 DUP4 AND SWAP3 DUP4 ISZERO PUSH2 0x517 JUMPI JUMPDEST PUSH1 0x20 SWAP4 DUP5 DUP5 LT DUP2 EQ PUSH2 0x201 JUMPI DUP4 DUP9 MSTORE SWAP1 DUP2 ISZERO PUSH2 0x1E5 JUMPI POP PUSH1 0x1 EQ PUSH2 0x4C1 JUMPI POP POP POP DUP3 SWAP1 SUB PUSH1 0x1F ADD PUSH1 0x1F NOT AND DUP3 ADD SWAP3 PUSH8 0xFFFFFFFFFFFFFFFF DUP5 GT DUP4 DUP6 LT OR PUSH2 0x17E JUMPI POP DUP3 SWAP2 DUP3 PUSH2 0x17A SWAP3 MSTORE DUP3 PUSH2 0x521 JUMP JUMPDEST PUSH1 0x3 PUSH0 SWAP1 DUP2 MSTORE SWAP3 SWAP4 POP DUP4 PUSH32 0xC2575A0E9E593C00F959F8C92F12DB2869C3395A3B0502D05E2516446F71F85B JUMPDEST DUP4 DUP6 LT PUSH2 0x503 JUMPI POP POP POP POP DUP4 ADD ADD DUP5 DUP1 DUP1 PUSH2 0x148 JUMP JUMPDEST DUP1 SLOAD DUP9 DUP7 ADD DUP4 ADD MSTORE SWAP4 ADD SWAP3 DUP5 SWAP1 DUP3 ADD PUSH2 0x4ED JUMP JUMPDEST SWAP2 PUSH1 0x7F AND SWAP2 PUSH2 0x471 JUMP JUMPDEST PUSH1 0x20 DUP1 DUP3 MSTORE DUP3 MLOAD DUP2 DUP4 ADD DUP2 SWAP1 MSTORE SWAP1 SWAP4 SWAP3 PUSH0 JUMPDEST DUP3 DUP2 LT PUSH2 0x554 JUMPI POP POP PUSH1 0x40 SWAP3 SWAP4 POP PUSH0 DUP4 DUP3 DUP5 ADD ADD MSTORE PUSH1 0x1F DUP1 NOT SWAP2 ADD AND ADD ADD SWAP1 JUMP JUMPDEST DUP2 DUP2 ADD DUP7 ADD MLOAD DUP5 DUP3 ADD PUSH1 0x40 ADD MSTORE DUP6 ADD PUSH2 0x533 JUMP JUMPDEST PUSH1 0x4 CALLDATALOAD SWAP1 PUSH1 0x1 PUSH1 0x1 PUSH1 0xA0 SHL SUB DUP3 AND DUP3 SUB PUSH2 0xCB JUMPI JUMP JUMPDEST PUSH1 0x24 CALLDATALOAD SWAP1 PUSH1 0x1 PUSH1 0x1 PUSH1 0xA0 SHL SUB DUP3 AND DUP3 SUB PUSH2 0xCB JUMPI JUMP JUMPDEST SWAP2 PUSH1 0x1 PUSH1 0x1 PUSH1 0xA0 SHL SUB DUP1 DUP5 AND SWAP3 DUP4 ISZERO PUSH2 0x656 JUMPI AND SWAP3 DUP4 ISZERO PUSH2 0x63E JUMPI DUP3 PUSH0 MSTORE PUSH0 PUSH1 0x20 MSTORE PUSH1 0x40 PUSH0 KECCAK256 SLOAD SWAP1 DUP3 DUP3 LT PUSH2 0x60C JUMPI POP DUP2 PUSH32 0xDDF252AD1BE2C89B69C2B068FC378DAA952BA7F163C4A11628F55A4DF523B3EF SWAP3 PUSH1 0x20 SWAP3 DUP6 PUSH0 MSTORE PUSH0 DUP5 MSTORE SUB PUSH1 0x40 PUSH0 KECCAK256 SSTORE DUP5 PUSH0 MSTORE PUSH1 0x40 PUSH0 KECCAK256 DUP2 DUP2 SLOAD ADD SWAP1 SSTORE PUSH1 0x40 MLOAD SWAP1 DUP2 MSTORE LOG3 JUMP JUMPDEST PUSH1 0x40 MLOAD PUSH4 0x391434E3 PUSH1 0xE2 SHL DUP2 MSTORE PUSH1 0x1 PUSH1 0x1 PUSH1 0xA0 SHL SUB SWAP2 SWAP1 SWAP2 AND PUSH1 0x4 DUP3 ADD MSTORE PUSH1 0x24 DUP2 ADD SWAP2 SWAP1 SWAP2 MSTORE PUSH1 0x44 DUP2 ADD DUP3 SWAP1 MSTORE PUSH1 0x64 SWAP1 REVERT JUMPDEST PUSH1 0x40 MLOAD PUSH4 0xEC442F05 PUSH1 0xE0 SHL DUP2 MSTORE PUSH0 PUSH1 0x4 DUP3 ADD MSTORE PUSH1 0x24 SWAP1 REVERT JUMPDEST PUSH1 0x40 MLOAD PUSH4 0x4B637E8F PUSH1 0xE1 SHL DUP2 MSTORE PUSH0 PUSH1 0x4 DUP3 ADD MSTORE PUSH1 0x24 SWAP1 REVERT INVALID LOG2 PUSH5 0x6970667358 0x22 SLT KECCAK256 SWAP15 DUP12 0x26 PUSH32 0x3CB7F145E9299E7AE653F8F413A40C593FD3A4CA96970C4FBB1935B364736F6C PUSH4 0x43000818 STOP CALLER LOG2 PUSH5 0x6970667358 0x22 SLT KECCAK256 TLOAD 0xE3 CALLER 0xFC 0xD6 GASPRICE 0xCF PUSH8 0xF559B61E16BFB53 PUSH13 0xA95145E7D10E3EF77D320731A1 0xDA 0xE4 PUSH5 0x736F6C6343 STOP ADDMOD XOR STOP CALLER "},"methodIdentifiers":{"LAUNCHPAD_FEE_BPS()":"c8993e8c","createCorpus(string,string,(uint16,uint16,uint16,address,address,address),(uint256,uint256,uint256),(address,uint256,uint256),string,string)":"dee4e43b","creatorOf(uint256)":"589a1743","deactivateCorpus(uint256)":"4362e30c","getCorpus(uint256)":"6b6e2411","isActive(uint256)":"82afd23b","nextCorpusId()":"b65b6576","updateKernel(uint256,(uint256,uint256,uint256))":"e556887a","updatePatron(uint256,(uint16,uint16,uint16,address,address,address))":"11642020","updatePulse(uint256,(address,uint256,uint256))":"f830db06","vantageProtocolWallet()":"0c8f5314"}}}}}