{"contracts/VantageNameService.sol":{"VantageNameService":{"abi":[{"inputs":[{"internalType":"address","name":"_registry","type":"address"}],"stateMutability":"nonpayable","type":"constructor"},{"inputs":[],"name":"CorpusNotFound","type":"error"},{"inputs":[],"name":"InvalidName","type":"error"},{"inputs":[],"name":"NameAlreadySet","type":"error"},{"inputs":[],"name":"NameTaken","type":"error"},{"inputs":[],"name":"NotCorpusCreator","type":"error"},{"anonymous":false,"inputs":[{"indexed":true,"internalType":"uint256","name":"corpusId","type":"uint256"},{"indexed":false,"internalType":"string","name":"name","type":"string"}],"name":"NameRegistered","type":"event"},{"inputs":[{"internalType":"uint256","name":"corpusId","type":"uint256"}],"name":"hasName","outputs":[{"internalType":"bool","name":"","type":"bool"}],"stateMutability":"view","type":"function"},{"inputs":[{"internalType":"string","name":"name","type":"string"}],"name":"isNameAvailable","outputs":[{"internalType":"bool","name":"","type":"bool"}],"stateMutability":"view","type":"function"},{"inputs":[{"internalType":"uint256","name":"corpusId","type":"uint256"}],"name":"nameOf","outputs":[{"internalType":"string","name":"","type":"string"}],"stateMutability":"view","type":"function"},{"inputs":[{"internalType":"uint256","name":"corpusId","type":"uint256"},{"internalType":"string","name":"name","type":"string"}],"name":"registerName","outputs":[],"stateMutability":"nonpayable","type":"function"},{"inputs":[],"name":"registry","outputs":[{"internalType":"contract VantageRegistry","name":"","type":"address"}],"stateMutability":"view","type":"function"},{"inputs":[{"internalType":"string","name":"name","type":"string"}],"name":"resolveName","outputs":[{"internalType":"uint256","name":"","type":"uint256"}],"stateMutability":"view","type":"function"}],"evm":{"bytecode":{"linkReferences":{},"object":"60a03461007257601f61088b38819003918201601f19168301916001600160401b038311848410176100765780849260209460405283398101031261007257516001600160a01b0381169081900361007257608052604051610800908161008b823960805181818160ef01526104450152f35b5f80fd5b634e487b7160e01b5f52604160045260245ffdfe6080604081815260049182361015610015575f80fd5b5f3560e01c908163051a266414610474575080637b103999146104315780638cf44d21146103ec578063bc19bce514610398578063c3f64523146100905763d6c6cd6b14610061575f80fd5b3461008c57602036600319011261008c57602091355f526002825260ff815f20541690519015158152f35b5f80fd5b50903461008c578160031936011261008c578035906024359267ffffffffffffffff9384811161008c576100c79036908401610575565b825163589a174360e01b81528085018690529093602092916001600160a01b039084816024817f000000000000000000000000000000000000000000000000000000000000000086165afa90811561038e575f91610358575b5016801561034957330361033b57855f526002835260ff845f20541661032d5761014a85836106ae565b1561031f5761015a368684610611565b838151910120805f52600191828552855f205461031157875f525f8552855f209887116102fe575061018c88546105a3565b601f81116102b8575b505f97601f871160011461023457918693918493847ff2c15afa763f37050f1d13e59f6510941bcf6deae7f22c5c84bf8c6a4cc33f5c9a9b5f91610229575b505f19600387901b1c191685841b1790555b5f5280855288865f2055885f5260028552855f209060ff198254161790558451958487958652850152848401375f828201840152601f01601f19168101030190a2005b90508401355f6101d4565b601f198716815f52855f20905f5b8181106102a3575091889593917ff2c15afa763f37050f1d13e59f6510941bcf6deae7f22c5c84bf8c6a4cc33f5c9a9b878097951061028a575b50508285811b0190556101e6565b8501355f19600388901b60f8161c191690555f8061027c565b868c013583559a87019a918501918701610242565b885f52845f20601f880160051c8101918689106102f4575b601f0160051c019083905b8281106102e9575050610195565b5f81550183906102db565b90915081906102d0565b604190634e487b7160e01b5f525260245ffd5b8551639e4b268560e01b8152fd5b835163430f13b360e01b8152fd5b835163bcde494160e01b8152fd5b8351636b3692b960e11b8152fd5b508351636f2875cd60e01b8152fd5b90508481813d8311610387575b61036f81836105db565b8101031261008c5751818116810361008c575f610120565b503d610365565b86513d5f823e3d90fd5b503461008c57602036600319011261008c5781359167ffffffffffffffff831161008c576103ce6103d591602094369101610575565b3691610611565b8281519101205f5260018252805f20549051908152f35b503461008c57602036600319011261008c5781359167ffffffffffffffff831161008c5761042261042891602094369101610575565b90610657565b90519015158152f35b503461008c575f36600319011261008c57517f00000000000000000000000000000000000000000000000000000000000000006001600160a01b03168152602090f35b90503461008c576020928360031936011261008c57355f525f83528281835f205f9080546104a1816105a3565b808552916001918083169081156105525750600114610514575b5050506104cd925094929403846105db565b815192818492835281519182828501525f5b8381106104fe5750505f83830185015250601f01601f19168101030190f35b81810183015187820187015286945082016104df565b5f90815285812095935091905b81831061053a5750879450508201016104cd5f806104bb565b85548784018501529485019486945091830191610521565b925050506104cd94925060ff191682840152151560051b82010185925f806104bb565b9181601f8401121561008c5782359167ffffffffffffffff831161008c576020838186019501011161008c57565b90600182811c921680156105d1575b60208310146105bd57565b634e487b7160e01b5f52602260045260245ffd5b91607f16916105b2565b90601f8019910116810190811067ffffffffffffffff8211176105fd57604052565b634e487b7160e01b5f52604160045260245ffd5b92919267ffffffffffffffff82116105fd576040519161063b601f8201601f1916602001846105db565b82948184528183011161008c578281602093845f960137010152565b61066182826106ae565b1561068857610671913691610611565b602081519101205f52600160205260405f20541590565b50505f90565b9082101561069a570190565b634e487b7160e01b5f52603260045260245ffd5b906003811080156107c0575b61068857801561069a57602d60f81b6001600160f81b0319833581168214801561078b575b610783575f92835b8185106106f957505050505050600190565b8261070586848961068e565b3516848103610728575061071f57600180945b01936106e7565b50505050505f90565b606160f81b811015915081610774575b811561074e575b501561071f5760015f94610718565b600360fc1b811015915081610765575b505f61073f565b603960f81b101590505f61075e565b603d60f91b8111159150610738565b505050505f90565b505f1983018381116107ac57816107a48492868861068e565b3516146106df565b634e487b7160e01b5f52601160045260245ffd5b50602081116106ba56fea2646970667358221220d481579e6c26b15cd1662f36b053a023fea57a13224983fc2448eb7a92ea95f464736f6c63430008180033","opcodes":"PUSH1 0xA0 CALLVALUE PUSH2 0x72 JUMPI PUSH1 0x1F PUSH2 0x88B CODESIZE DUP2 SWAP1 SUB SWAP2 DUP3 ADD PUSH1 0x1F NOT AND DUP4 ADD SWAP2 PUSH1 0x1 PUSH1 0x1 PUSH1 0x40 SHL SUB DUP4 GT DUP5 DUP5 LT OR PUSH2 0x76 JUMPI DUP1 DUP5 SWAP3 PUSH1 0x20 SWAP5 PUSH1 0x40 MSTORE DUP4 CODECOPY DUP2 ADD SUB SLT PUSH2 0x72 JUMPI MLOAD PUSH1 0x1 PUSH1 0x1 PUSH1 0xA0 SHL SUB DUP2 AND SWAP1 DUP2 SWAP1 SUB PUSH2 0x72 JUMPI PUSH1 0x80 MSTORE PUSH1 0x40 MLOAD PUSH2 0x800 SWAP1 DUP2 PUSH2 0x8B DUP3 CODECOPY PUSH1 0x80 MLOAD DUP2 DUP2 DUP2 PUSH1 0xEF ADD MSTORE PUSH2 0x445 ADD MSTORE RETURN JUMPDEST PUSH0 DUP1 REVERT JUMPDEST PUSH4 0x4E487B71 PUSH1 0xE0 SHL PUSH0 MSTORE PUSH1 0x41 PUSH1 0x4 MSTORE PUSH1 0x24 PUSH0 REVERT INVALID PUSH1 0x80 PUSH1 0x40 DUP2 DUP2 MSTORE PUSH1 0x4 SWAP2 DUP3 CALLDATASIZE LT ISZERO PUSH2 0x15 JUMPI PUSH0 DUP1 REVERT JUMPDEST PUSH0 CALLDATALOAD PUSH1 0xE0 SHR SWAP1 DUP2 PUSH4 0x51A2664 EQ PUSH2 0x474 JUMPI POP DUP1 PUSH4 0x7B103999 EQ PUSH2 0x431 JUMPI DUP1 PUSH4 0x8CF44D21 EQ PUSH2 0x3EC JUMPI DUP1 PUSH4 0xBC19BCE5 EQ PUSH2 0x398 JUMPI DUP1 PUSH4 0xC3F64523 EQ PUSH2 0x90 JUMPI PUSH4 0xD6C6CD6B EQ PUSH2 0x61 JUMPI PUSH0 DUP1 REVERT JUMPDEST CALLVALUE PUSH2 0x8C JUMPI PUSH1 0x20 CALLDATASIZE PUSH1 0x3 NOT ADD SLT PUSH2 0x8C JUMPI PUSH1 0x20 SWAP2 CALLDATALOAD PUSH0 MSTORE PUSH1 0x2 DUP3 MSTORE PUSH1 0xFF DUP2 PUSH0 KECCAK256 SLOAD AND SWAP1 MLOAD SWAP1 ISZERO ISZERO DUP2 MSTORE RETURN JUMPDEST PUSH0 DUP1 REVERT JUMPDEST POP SWAP1 CALLVALUE PUSH2 0x8C JUMPI DUP2 PUSH1 0x3 NOT CALLDATASIZE ADD SLT PUSH2 0x8C JUMPI DUP1 CALLDATALOAD SWAP1 PUSH1 0x24 CALLDATALOAD SWAP3 PUSH8 0xFFFFFFFFFFFFFFFF SWAP4 DUP5 DUP2 GT PUSH2 0x8C JUMPI PUSH2 0xC7 SWAP1 CALLDATASIZE SWAP1 DUP5 ADD PUSH2 0x575 JUMP JUMPDEST DUP3 MLOAD PUSH4 0x589A1743 PUSH1 0xE0 SHL DUP2 MSTORE DUP1 DUP6 ADD DUP7 SWAP1 MSTORE SWAP1 SWAP4 PUSH1 0x20 SWAP3 SWAP2 PUSH1 0x1 PUSH1 0x1 PUSH1 0xA0 SHL SUB SWAP1 DUP5 DUP2 PUSH1 0x24 DUP2 PUSH32 0x0 DUP7 AND GAS STATICCALL SWAP1 DUP2 ISZERO PUSH2 0x38E JUMPI PUSH0 SWAP2 PUSH2 0x358 JUMPI JUMPDEST POP AND DUP1 ISZERO PUSH2 0x349 JUMPI CALLER SUB PUSH2 0x33B JUMPI DUP6 PUSH0 MSTORE PUSH1 0x2 DUP4 MSTORE PUSH1 0xFF DUP5 PUSH0 KECCAK256 SLOAD AND PUSH2 0x32D JUMPI PUSH2 0x14A DUP6 DUP4 PUSH2 0x6AE JUMP JUMPDEST ISZERO PUSH2 0x31F JUMPI PUSH2 0x15A CALLDATASIZE DUP7 DUP5 PUSH2 0x611 JUMP JUMPDEST DUP4 DUP2 MLOAD SWAP2 ADD KECCAK256 DUP1 PUSH0 MSTORE PUSH1 0x1 SWAP2 DUP3 DUP6 MSTORE DUP6 PUSH0 KECCAK256 SLOAD PUSH2 0x311 JUMPI DUP8 PUSH0 MSTORE PUSH0 DUP6 MSTORE DUP6 PUSH0 KECCAK256 SWAP9 DUP8 GT PUSH2 0x2FE JUMPI POP PUSH2 0x18C DUP9 SLOAD PUSH2 0x5A3 JUMP JUMPDEST PUSH1 0x1F DUP2 GT PUSH2 0x2B8 JUMPI JUMPDEST POP PUSH0 SWAP8 PUSH1 0x1F DUP8 GT PUSH1 0x1 EQ PUSH2 0x234 JUMPI SWAP2 DUP7 SWAP4 SWAP2 DUP5 SWAP4 DUP5 PUSH32 0xF2C15AFA763F37050F1D13E59F6510941BCF6DEAE7F22C5C84BF8C6A4CC33F5C SWAP11 SWAP12 PUSH0 SWAP2 PUSH2 0x229 JUMPI JUMPDEST POP PUSH0 NOT PUSH1 0x3 DUP8 SWAP1 SHL SHR NOT AND DUP6 DUP5 SHL OR SWAP1 SSTORE JUMPDEST PUSH0 MSTORE DUP1 DUP6 MSTORE DUP9 DUP7 PUSH0 KECCAK256 SSTORE DUP9 PUSH0 MSTORE PUSH1 0x2 DUP6 MSTORE DUP6 PUSH0 KECCAK256 SWAP1 PUSH1 0xFF NOT DUP3 SLOAD AND OR SWAP1 SSTORE DUP5 MLOAD SWAP6 DUP5 DUP8 SWAP6 DUP7 MSTORE DUP6 ADD MSTORE DUP5 DUP5 ADD CALLDATACOPY PUSH0 DUP3 DUP3 ADD DUP5 ADD MSTORE PUSH1 0x1F ADD PUSH1 0x1F NOT AND DUP2 ADD SUB ADD SWAP1 LOG2 STOP JUMPDEST SWAP1 POP DUP5 ADD CALLDATALOAD PUSH0 PUSH2 0x1D4 JUMP JUMPDEST PUSH1 0x1F NOT DUP8 AND DUP2 PUSH0 MSTORE DUP6 PUSH0 KECCAK256 SWAP1 PUSH0 JUMPDEST DUP2 DUP2 LT PUSH2 0x2A3 JUMPI POP SWAP2 DUP9 SWAP6 SWAP4 SWAP2 PUSH32 0xF2C15AFA763F37050F1D13E59F6510941BCF6DEAE7F22C5C84BF8C6A4CC33F5C SWAP11 SWAP12 DUP8 DUP1 SWAP8 SWAP6 LT PUSH2 0x28A JUMPI JUMPDEST POP POP DUP3 DUP6 DUP2 SHL ADD SWAP1 SSTORE PUSH2 0x1E6 JUMP JUMPDEST DUP6 ADD CALLDATALOAD PUSH0 NOT PUSH1 0x3 DUP9 SWAP1 SHL PUSH1 0xF8 AND SHR NOT AND SWAP1 SSTORE PUSH0 DUP1 PUSH2 0x27C JUMP JUMPDEST DUP7 DUP13 ADD CALLDATALOAD DUP4 SSTORE SWAP11 DUP8 ADD SWAP11 SWAP2 DUP6 ADD SWAP2 DUP8 ADD PUSH2 0x242 JUMP JUMPDEST DUP9 PUSH0 MSTORE DUP5 PUSH0 KECCAK256 PUSH1 0x1F DUP9 ADD PUSH1 0x5 SHR DUP2 ADD SWAP2 DUP7 DUP10 LT PUSH2 0x2F4 JUMPI JUMPDEST PUSH1 0x1F ADD PUSH1 0x5 SHR ADD SWAP1 DUP4 SWAP1 JUMPDEST DUP3 DUP2 LT PUSH2 0x2E9 JUMPI POP POP PUSH2 0x195 JUMP JUMPDEST PUSH0 DUP2 SSTORE ADD DUP4 SWAP1 PUSH2 0x2DB JUMP JUMPDEST SWAP1 SWAP2 POP DUP2 SWAP1 PUSH2 0x2D0 JUMP JUMPDEST PUSH1 0x41 SWAP1 PUSH4 0x4E487B71 PUSH1 0xE0 SHL PUSH0 MSTORE MSTORE PUSH1 0x24 PUSH0 REVERT JUMPDEST DUP6 MLOAD PUSH4 0x9E4B2685 PUSH1 0xE0 SHL DUP2 MSTORE REVERT JUMPDEST DUP4 MLOAD PUSH4 0x430F13B3 PUSH1 0xE0 SHL DUP2 MSTORE REVERT JUMPDEST DUP4 MLOAD PUSH4 0xBCDE4941 PUSH1 0xE0 SHL DUP2 MSTORE REVERT JUMPDEST DUP4 MLOAD PUSH4 0x6B3692B9 PUSH1 0xE1 SHL DUP2 MSTORE REVERT JUMPDEST POP DUP4 MLOAD PUSH4 0x6F2875CD PUSH1 0xE0 SHL DUP2 MSTORE REVERT JUMPDEST SWAP1 POP DUP5 DUP2 DUP2 RETURNDATASIZE DUP4 GT PUSH2 0x387 JUMPI JUMPDEST PUSH2 0x36F DUP2 DUP4 PUSH2 0x5DB JUMP JUMPDEST DUP2 ADD SUB SLT PUSH2 0x8C JUMPI MLOAD DUP2 DUP2 AND DUP2 SUB PUSH2 0x8C JUMPI PUSH0 PUSH2 0x120 JUMP JUMPDEST POP RETURNDATASIZE PUSH2 0x365 JUMP JUMPDEST DUP7 MLOAD RETURNDATASIZE PUSH0 DUP3 RETURNDATACOPY RETURNDATASIZE SWAP1 REVERT JUMPDEST POP CALLVALUE PUSH2 0x8C JUMPI PUSH1 0x20 CALLDATASIZE PUSH1 0x3 NOT ADD SLT PUSH2 0x8C JUMPI DUP2 CALLDATALOAD SWAP2 PUSH8 0xFFFFFFFFFFFFFFFF DUP4 GT PUSH2 0x8C JUMPI PUSH2 0x3CE PUSH2 0x3D5 SWAP2 PUSH1 0x20 SWAP5 CALLDATASIZE SWAP2 ADD PUSH2 0x575 JUMP JUMPDEST CALLDATASIZE SWAP2 PUSH2 0x611 JUMP JUMPDEST DUP3 DUP2 MLOAD SWAP2 ADD KECCAK256 PUSH0 MSTORE PUSH1 0x1 DUP3 MSTORE DUP1 PUSH0 KECCAK256 SLOAD SWAP1 MLOAD SWAP1 DUP2 MSTORE RETURN JUMPDEST POP CALLVALUE PUSH2 0x8C JUMPI PUSH1 0x20 CALLDATASIZE PUSH1 0x3 NOT ADD SLT PUSH2 0x8C JUMPI DUP2 CALLDATALOAD SWAP2 PUSH8 0xFFFFFFFFFFFFFFFF DUP4 GT PUSH2 0x8C JUMPI PUSH2 0x422 PUSH2 0x428 SWAP2 PUSH1 0x20 SWAP5 CALLDATASIZE SWAP2 ADD PUSH2 0x575 JUMP JUMPDEST SWAP1 PUSH2 0x657 JUMP JUMPDEST SWAP1 MLOAD SWAP1 ISZERO ISZERO DUP2 MSTORE RETURN JUMPDEST POP CALLVALUE PUSH2 0x8C JUMPI PUSH0 CALLDATASIZE PUSH1 0x3 NOT ADD SLT PUSH2 0x8C JUMPI MLOAD PUSH32 0x0 PUSH1 0x1 PUSH1 0x1 PUSH1 0xA0 SHL SUB AND DUP2 MSTORE PUSH1 0x20 SWAP1 RETURN JUMPDEST SWAP1 POP CALLVALUE PUSH2 0x8C JUMPI PUSH1 0x20 SWAP3 DUP4 PUSH1 0x3 NOT CALLDATASIZE ADD SLT PUSH2 0x8C JUMPI CALLDATALOAD PUSH0 MSTORE PUSH0 DUP4 MSTORE DUP3 DUP2 DUP4 PUSH0 KECCAK256 PUSH0 SWAP1 DUP1 SLOAD PUSH2 0x4A1 DUP2 PUSH2 0x5A3 JUMP JUMPDEST DUP1 DUP6 MSTORE SWAP2 PUSH1 0x1 SWAP2 DUP1 DUP4 AND SWAP1 DUP2 ISZERO PUSH2 0x552 JUMPI POP PUSH1 0x1 EQ PUSH2 0x514 JUMPI JUMPDEST POP POP POP PUSH2 0x4CD SWAP3 POP SWAP5 SWAP3 SWAP5 SUB DUP5 PUSH2 0x5DB JUMP JUMPDEST DUP2 MLOAD SWAP3 DUP2 DUP5 SWAP3 DUP4 MSTORE DUP2 MLOAD SWAP2 DUP3 DUP3 DUP6 ADD MSTORE PUSH0 JUMPDEST DUP4 DUP2 LT PUSH2 0x4FE JUMPI POP POP PUSH0 DUP4 DUP4 ADD DUP6 ADD MSTORE POP PUSH1 0x1F ADD PUSH1 0x1F NOT AND DUP2 ADD SUB ADD SWAP1 RETURN JUMPDEST DUP2 DUP2 ADD DUP4 ADD MLOAD DUP8 DUP3 ADD DUP8 ADD MSTORE DUP7 SWAP5 POP DUP3 ADD PUSH2 0x4DF JUMP JUMPDEST PUSH0 SWAP1 DUP2 MSTORE DUP6 DUP2 KECCAK256 SWAP6 SWAP4 POP SWAP2 SWAP1 JUMPDEST DUP2 DUP4 LT PUSH2 0x53A JUMPI POP DUP8 SWAP5 POP POP DUP3 ADD ADD PUSH2 0x4CD PUSH0 DUP1 PUSH2 0x4BB JUMP JUMPDEST DUP6 SLOAD DUP8 DUP5 ADD DUP6 ADD MSTORE SWAP5 DUP6 ADD SWAP5 DUP7 SWAP5 POP SWAP2 DUP4 ADD SWAP2 PUSH2 0x521 JUMP JUMPDEST SWAP3 POP POP POP PUSH2 0x4CD SWAP5 SWAP3 POP PUSH1 0xFF NOT AND DUP3 DUP5 ADD MSTORE ISZERO ISZERO PUSH1 0x5 SHL DUP3 ADD ADD DUP6 SWAP3 PUSH0 DUP1 PUSH2 0x4BB JUMP JUMPDEST SWAP2 DUP2 PUSH1 0x1F DUP5 ADD SLT ISZERO PUSH2 0x8C JUMPI DUP3 CALLDATALOAD SWAP2 PUSH8 0xFFFFFFFFFFFFFFFF DUP4 GT PUSH2 0x8C JUMPI PUSH1 0x20 DUP4 DUP2 DUP7 ADD SWAP6 ADD ADD GT PUSH2 0x8C JUMPI JUMP JUMPDEST SWAP1 PUSH1 0x1 DUP3 DUP2 SHR SWAP3 AND DUP1 ISZERO PUSH2 0x5D1 JUMPI JUMPDEST PUSH1 0x20 DUP4 LT EQ PUSH2 0x5BD JUMPI JUMP JUMPDEST PUSH4 0x4E487B71 PUSH1 0xE0 SHL PUSH0 MSTORE PUSH1 0x22 PUSH1 0x4 MSTORE PUSH1 0x24 PUSH0 REVERT JUMPDEST SWAP2 PUSH1 0x7F AND SWAP2 PUSH2 0x5B2 JUMP JUMPDEST SWAP1 PUSH1 0x1F DUP1 NOT SWAP2 ADD AND DUP2 ADD SWAP1 DUP2 LT PUSH8 0xFFFFFFFFFFFFFFFF DUP3 GT OR PUSH2 0x5FD JUMPI PUSH1 0x40 MSTORE JUMP JUMPDEST PUSH4 0x4E487B71 PUSH1 0xE0 SHL PUSH0 MSTORE PUSH1 0x41 PUSH1 0x4 MSTORE PUSH1 0x24 PUSH0 REVERT JUMPDEST SWAP3 SWAP2 SWAP3 PUSH8 0xFFFFFFFFFFFFFFFF DUP3 GT PUSH2 0x5FD JUMPI PUSH1 0x40 MLOAD SWAP2 PUSH2 0x63B PUSH1 0x1F DUP3 ADD PUSH1 0x1F NOT AND PUSH1 0x20 ADD DUP5 PUSH2 0x5DB JUMP JUMPDEST DUP3 SWAP5 DUP2 DUP5 MSTORE DUP2 DUP4 ADD GT PUSH2 0x8C JUMPI DUP3 DUP2 PUSH1 0x20 SWAP4 DUP5 PUSH0 SWAP7 ADD CALLDATACOPY ADD ADD MSTORE JUMP JUMPDEST PUSH2 0x661 DUP3 DUP3 PUSH2 0x6AE JUMP JUMPDEST ISZERO PUSH2 0x688 JUMPI PUSH2 0x671 SWAP2 CALLDATASIZE SWAP2 PUSH2 0x611 JUMP JUMPDEST PUSH1 0x20 DUP2 MLOAD SWAP2 ADD KECCAK256 PUSH0 MSTORE PUSH1 0x1 PUSH1 0x20 MSTORE PUSH1 0x40 PUSH0 KECCAK256 SLOAD ISZERO SWAP1 JUMP JUMPDEST POP POP PUSH0 SWAP1 JUMP JUMPDEST SWAP1 DUP3 LT ISZERO PUSH2 0x69A JUMPI ADD SWAP1 JUMP JUMPDEST PUSH4 0x4E487B71 PUSH1 0xE0 SHL PUSH0 MSTORE PUSH1 0x32 PUSH1 0x4 MSTORE PUSH1 0x24 PUSH0 REVERT JUMPDEST SWAP1 PUSH1 0x3 DUP2 LT DUP1 ISZERO PUSH2 0x7C0 JUMPI JUMPDEST PUSH2 0x688 JUMPI DUP1 ISZERO PUSH2 0x69A JUMPI PUSH1 0x2D PUSH1 0xF8 SHL PUSH1 0x1 PUSH1 0x1 PUSH1 0xF8 SHL SUB NOT DUP4 CALLDATALOAD DUP2 AND DUP3 EQ DUP1 ISZERO PUSH2 0x78B JUMPI JUMPDEST PUSH2 0x783 JUMPI PUSH0 SWAP3 DUP4 JUMPDEST DUP2 DUP6 LT PUSH2 0x6F9 JUMPI POP POP POP POP POP POP PUSH1 0x1 SWAP1 JUMP JUMPDEST DUP3 PUSH2 0x705 DUP7 DUP5 DUP10 PUSH2 0x68E JUMP JUMPDEST CALLDATALOAD AND DUP5 DUP2 SUB PUSH2 0x728 JUMPI POP PUSH2 0x71F JUMPI PUSH1 0x1 DUP1 SWAP5 JUMPDEST ADD SWAP4 PUSH2 0x6E7 JUMP JUMPDEST POP POP POP POP POP PUSH0 SWAP1 JUMP JUMPDEST PUSH1 0x61 PUSH1 0xF8 SHL DUP2 LT ISZERO SWAP2 POP DUP2 PUSH2 0x774 JUMPI JUMPDEST DUP2 ISZERO PUSH2 0x74E JUMPI JUMPDEST POP ISZERO PUSH2 0x71F JUMPI PUSH1 0x1 PUSH0 SWAP5 PUSH2 0x718 JUMP JUMPDEST PUSH1 0x3 PUSH1 0xFC SHL DUP2 LT ISZERO SWAP2 POP DUP2 PUSH2 0x765 JUMPI JUMPDEST POP PUSH0 PUSH2 0x73F JUMP JUMPDEST PUSH1 0x39 PUSH1 0xF8 SHL LT ISZERO SWAP1 POP PUSH0 PUSH2 0x75E JUMP JUMPDEST PUSH1 0x3D PUSH1 0xF9 SHL DUP2 GT ISZERO SWAP2 POP PUSH2 0x738 JUMP JUMPDEST POP POP POP POP PUSH0 SWAP1 JUMP JUMPDEST POP PUSH0 NOT DUP4 ADD DUP4 DUP2 GT PUSH2 0x7AC JUMPI DUP2 PUSH2 0x7A4 DUP5 SWAP3 DUP7 DUP9 PUSH2 0x68E JUMP JUMPDEST CALLDATALOAD AND EQ PUSH2 0x6DF JUMP JUMPDEST PUSH4 0x4E487B71 PUSH1 0xE0 SHL PUSH0 MSTORE PUSH1 0x11 PUSH1 0x4 MSTORE PUSH1 0x24 PUSH0 REVERT JUMPDEST POP PUSH1 0x20 DUP2 GT PUSH2 0x6BA JUMP INVALID LOG2 PUSH5 0x6970667358 0x22 SLT KECCAK256 0xD4 DUP2 JUMPI SWAP15 PUSH13 0x26B15CD1662F36B053A023FEA5 PUSH27 0x13224983FC2448EB7A92EA95F464736F6C63430008180033000000 "},"methodIdentifiers":{"hasName(uint256)":"d6c6cd6b","isNameAvailable(string)":"8cf44d21","nameOf(uint256)":"051a2664","registerName(uint256,string)":"c3f64523","registry()":"7b103999","resolveName(string)":"bc19bce5"}}}}}